:100000000C9456020C948D0F0C94BA0F0C94DC0DCA
:100010000C94DC0D0C94DC0D0C947E020C947E028E
:100020000C947E020C947E020C947E020C947E0250
:100030000C947E020C9401030C947E020C947E02BC
:100040000C94E70F0C947E020C94F1120C94231381
:100050000C947E020C947E020C947E020C947E0220
:100060000C947E020C947E02456D657267656E632A
:10007000792043616E63656C65640A00456D657245
:1000800067656E637920536974756174696F6E205A
:100090004578697374730A000942504D3A20000A8A
:1000A0004175746F6D6174696320456D6572676534
:1000B0006E63792043616C6C202D2000202D20433D
:1000C0006F6E73656375746976652044616E6765EC
:1000D000726F75732052656164696E673A2000091A
:1000E00042504D3A200053656E6420746F3A2047A9
:1000F0007561726469616E20566974616C20446533
:10010000746563746F7220617420007C2D2D2D2D19
:100110002D2D2D2D2D2D2D2D2D2D2D2D2D2D2D2D0F
:100120002D2D2D2D2D2D2D2D2D2D2D2D2D2D2D2DFF
:100130002D7C0A7C202020454D455247454E435991
:100140002043414C4C204953204245494E472050C2
:100150004C41434544202020207C0A7C2D2D2D2D10
:100160002D2D2D2D2D2D2D2D2D2D2D2D2D2D2D2DBF
:100170002D2D2D2D2D2D2D2D2D2D2D2D2D2D2D2DAF
:100180002D7C0A00464F4E4120697320696E6974C8
:1001900069616C697A65640A004750525320737430
:1001A0006174653A20005265676973746572696E9F
:1001B000672041504E0A006E3A200052656769730D
:1001C000746572656420726F616D696E6700556E4B
:1001D0006B6E6F776E0044656E696564004E6F7478
:1001E0002072656769737465726564202873656140
:1001F000726368696E672900526567697374657216
:1002000065642028686F6D6529004E6F74207265E3
:100210006769737465726564003A20004E6574778F
:100220006F726B20737461747573200053494D2095
:1002300043434944203D20004D6F64756C6520495F
:100240004D45493A20003F3F3F00464F4E41203345
:100250004720284575726F7065616E2900464F4EC4
:10026000412033472028416D65726963616E290022
:10027000464F4E4120383038202876322900464FEC
:100280004E4120383038202876312900464F4E41E3
:10029000203830304800464F4E41203830304C0036
:1002A000466F756E642000464F4E41206973204FA3
:1002B0004B00436F756C646E27742066696E642012
:1002C000464F4E41000A427574746F6E204572723B
:1002D0006F722E20526573657474696E672E000A02
:1002E000456D657267656E637920427574746F6ED3
:1002F0002043616C6C205265717565737465642070
:100300002D2000093C2D2D2D2000092D2D2D3E20C6
:1003100000093C2D2D2D2000092D2D2D3E200041C2
:10032000542B43474154543F002B43474154543AC4
:10033000200041542B5350574D3D302C0041542B3D
:10034000435245473F002B435245473A2000415412
:100350002B47534E0041542B434349440053494DCE
:100360003830304800093C2D2D2D2000092D2D2D31
:100370003E200053494D434F4D5F53494D35333275
:1003800030450053494D434F4D5F53494D3533324E
:1003900030410053494D38303020523133005349F9
:1003A0004D383038205231330053494D38303820E1
:1003B00052313400093C2D2D2D2000092D2D2D3ECC
:1003C000200041542B435648553D300041544530A0
:1003D0000041544530004154004154004154005400
:1003E000696D656F75743A204E6F20726573706F1A
:1003F0006E736520746F2041542E2E2E206C617315
:100400007420646974636820617474656D70742EFF
:1004100000415400415400415400417474656D70B2
:1004200074696E6720746F206F70656E20636F6DE6
:100430006D207769746820415473004F4B00464F1C
:100440004E4100464F4E416E6574000000000800AA
:10045000020100000304070000000000000000018A
:100460000204081020408001020408102001020448
:10047000081020040404040404040402020202021A
:1004800002030303030303000000002300260029E6
:100490000000000000250028002B000000000024C0
:1004A0000027002A00004D055313590511241FBED3
:1004B000CFEFD8E0DEBFCDBF12E0A0E0B1E0E2E2D6
:1004C000FCE202C005900D92A432B107D9F725E0F5
:1004D000A4E2B2E001C01D92AF37B207E1F714E029
:1004E000CAEAD4E004C02297FE010E948D15C63AE4
:1004F000D107C9F70E9497130C9404160C940000BE
:10050000CF92DF92EF92FF92CF93DF9380914C02D4
:1005100090914D02A0914E02B0914F02892B8A2BEF
:100520008B2B69F060E0809111010E944D111092B7
:100530004C0210924D0210924E0210924F020E94F5
:1005400031106B017C018091240290912502A091D1
:100550002602B0912702A7019601281B390B4A0BEE
:100560005B0B253131054105510518F161E08091A2
:1005700013010E944D11CAE0D0E080E197E20E9491
:1005800088102197D1F760E0809113010E944D11EE
:10059000809152029091530201969093530280935E
:1005A0005202C0922402D0922502E0922602F092DA
:1005B00027027894DF91CF91FF90EF90DF90CF905A
:1005C0000895DC01ED91FC910190F081E02D0994FA
:1005D0001092800081E1809381001092820081E07E
:1005E00080936F0080E89EE390938700809386005D
:1005F00043E050E060E872E081E00E946D0F789483
:1006000008951F920F920FB60F9211242F933F93CC
:100610004F935F936F937F938F939F93AF93BF930A
:10062000CF93DF93EF93FF93F894809156020E944B
:10063000CE10909349028093480280912E029091AF
:100640002F02A0913002B09131020296A11DB11D7E
:1006500080932E0290932F02A0933002B093310228
:1006600040912E0250912F02609130027091310220
:1006700080912A0290912B02A0912C02B0912D0220
:10068000EA01C81BD90B20914802309149028091A0
:10069000090190910A01281739071CF580910F0173
:1006A0009091100165E070E00E943615CB01880F33
:1006B000991F860F971F8C179D079CF42091480265
:1006C0003091490280910B0190910C012817390754
:1006D00044F4809148029091490290930C018093D8
:1006E0000B012091480230914902809109019091BB
:1006F0000A018217930764F420914802309149025D
:1007000080910D0190910E01821793070CF490C017
:10071000CB3FD1050CF443C02091480230914902EF
:100720008091090190910A0182179307C4F5809185
:100730004702811134C080910F019091100165E052
:1007400070E00E943615CB01880F991F860F971F06
:100750008C179D070CF475C022C080910F019091F9
:10076000100190934502809344028091440290913D
:100770004502820F931F6AE070E00E9422159B01E0
:1007800040E050E060E67AEE80E090E00E946C1578
:1007900030934B0220934A0281E0809346022091DD
:1007A0004802309149028091090190910A0128176D
:1007B000390724F4809147028111AFC0C53CD9406C
:1007C0001CF180E092E090930A01809309019093DC
:1007D0000E0180930D0190930C0180930B01809189
:1007E0002E0290912F02A0913002B091310280939D
:1007F0002A0290932B02A0932C02B0932D0281E049
:1008000080930601109229027894FF91EF91DF9175
:10081000CF91BF91AF919F918F917F916F915F9198
:100820004F913F912F910F900FBE0F901F901895F1
:10083000809148029091490290930E0180930D019E
:1008400067CF81E08093470261E0809115010E94AB
:100850004D1140912E0250912F0260913002709103
:10086000310280912A0290912B02A0912C02B0912A
:100870002D02481B590B5093100140930F0180919A
:100880002E0290912F02A0913002B09131028093FC
:100890002A0290932B02A0932C02B0932D028091F8
:1008A0002902882399F01092290280E090E020919B
:1008B0000F0130911001FC01EE0FFF1FEE5CFD4FA8
:1008C0003183208301968A30910589F78091060152
:1008D000882331F01092060181E08093290294CFA1
:1008E000E0E0F0E020E030E0CF010196DC01AA0F6B
:1008F000BB1FAE5CBD4F4D915C91EE0FFF1FEE5CD8
:10090000FD4F5183408340815181240F351F893031
:10091000910509F422CFFC01E7CF60E08091150139
:100920000E944D111092470280910D0190910E018D
:1009300020910B0130910C01821B930B90930801C5
:1009400080930701809107019091080120910B018C
:1009500030910C0197FD019695958795820F931F15
:1009600090930A01809309018091090190910A01F5
:1009700090930E0180930D018091090190910A01DD
:1009800090930C0180930B0119CFEF92FF920F937C
:100990001F93CF93DF93CDB7DEB7C451D1400FB6CD
:1009A000F894DEBF0FBECDBF6BE071E082EE94E045
:1009B0000E9414146AE070E080E090E00E946010F1
:1009C000F8940AE010E061E0809113010E944D115B
:1009D000BAE0EB2EF12C80E197E20E94881081E0D2
:1009E000E81AF108C1F760E0809113010E944D11EF
:1009F000AAE0EA2EF12C80E197E20E94881081E0C3
:100A0000E81AF108C1F701501109E9F66AE171E04D
:100A1000CE0193950E94E61562E370E080E090E0DD
:100A20000E94601066EE70E082EE94E00E94E41393
:100A3000BE01739582EE94E00E94261465E271E097
:100A4000CE0101960E94E615BE016F5F7F4F82EED8
:100A500094E00E942614789461E0809111010E9434
:100A60004D110E94311060934C0270934D0280939F
:100A70004E0290934F021092530210925202CC5E9B
:100A8000DE4F0FB6F894DEBF0FBECDBFDF91CF9122
:100A90001F910F91FF90EF90089520E045E066E0F0
:100AA00083E793E00E94AF0E64E089E592E00C9446
:100AB000800883E793E00C94560E82EE94E00E9447
:100AC000AC11892B29F082EE94E00E94C511F5CF7C
:100AD00008950F931F93CF93DF93CDB7DEB72F9772
:100AE0000FB6F894DEBF0FBECDBF40EC52E160E020
:100AF00070E080911701909118010E94DF0E6091C3
:100B000017017091180189E592E00E946E0A811127
:100B100007C062EB72E082EE94E00E941414FFCFF3
:100B200089E592E00E94B3088093580267EA72E078
:100B300082EE94E00E94141460EA72E082EE94E087
:100B40000E94E41380915802833099F038F4813088
:100B500069F08230A9F56EE772E013C0853079F054
:100B600058F0863069F56CE872E00BC066E972E017
:100B700008C060E772E005C06DE572E002C06AE49B
:100B800072E082EE94E00E9414148E010F5F1F4FFA
:100B90008FE0F80111928A95E9F7B80189E592E0B2
:100BA0000E94AB098823A1F068E372E082EE94E032
:100BB0000E94E413B80182EE94E00E94261408C05B
:100BC00066E472E082EE94E00E94141480E0A6C015
:100BD00062E973E089E592E00E947D096CE272E0CF
:100BE00082EE94E00E94E41362E973E082EE94E006
:100BF0000E94261489E592E00E94AC0C182F6CE14B
:100C000072E082EE94E00E94E4134AE050E0612F2B
:100C100082EE94E00E941A1569E172E082EE94E09F
:100C20000E94E413111103C06AE072E018C0113091
:100C300019F468EF71E013C0123019F46DED71E032
:100C40000EC0133019F466ED71E009C0143019F4C8
:100C50006EEC71E004C0153031F46BEB71E082EEA4
:100C600094E00E94141461E0809156020E944D119C
:100C7000113099F089E592E00E94AC0C182F67EBD7
:100C800071E082EE94E00E94E4134AE050E0612FAC
:100C900082EE94E00E941A15EBCF60E0809156023C
:100CA0000E944D1166EA71E082EE94E00E94E41326
:100CB00020E030E040E050E062E871E089E592E059
:100CC0000E94B60889E592E00E94CB0C182F69E9D2
:100CD00071E082EE94E00E94E413612F70E04AE03C
:100CE00050E082EE94E00E94E31464E871E082EE4A
:100CF00094E00E94E4130E945D0589E592E00E9461
:100D00004408892B51F089E592E00E945C08BC01FF
:100D100082EE94E00E94E102F0CF81E02F960FB6C0
:100D2000F894DEBF0FBECDBFDF91CF911F910F9121
:100D3000089561E0809115010E94141126E040E0C1
:100D400052EC61E070E082EE94E00E948F120E940B
:100D500069050E94E80260E083E00E94141161E0EE
:100D600083E00E944D1161E0809111010E941411F5
:100D700061E0809113010E941411109253021092AD
:100D8000520208958F929F92AF92BF92CF92DF92BC
:100D9000EF92FF926CE770E082EE94E00E941414F0
:100DA00042E360E070E089E592E00E94150C61E0AA
:100DB000809111010E944D110E9431104B015C0184
:100DC0000E9431106B017C0188E8C80E83E1D81EB7
:100DD000E11CF11C10925302109252020E94311039
:100DE0006C157D058E059F0508F061C060E080915F
:100DF00015010E944D118091520290915302029769
:100E0000CCF168E670E082EE94E00E94141442E3B4
:100E100060E070E089E592E00E94150C61E080914D
:100E200013010E944D116AEF70E080E090E00E9493
:100E3000601060E0809113010E944D116AEF70E034
:100E400080E090E00E94601061E0809113010E94B8
:100E50004D116AEF70E080E090E00E94601060E069
:100E6000809113010E944D11109253021092520270
:100E700080E035C00E943110681979098A099B0900
:100E80006A3F71058105910508F4A8CF8091110191
:100E90000E94831161E0892B09F060E080911101CB
:100EA0000E944D110E9431104B015C0197CF60E010
:100EB000809113010E944D1160E0809111010E9408
:100EC0004D1110925302109252020E945D0542E3AE
:100ED00060E070E089E592E00E94150C81E0FF90EF
:100EE000EF90DF90CF90BF90AF909F908F9008953C
:100EF000CF93DF93EC014E978B3A910508F446C0EF
:100F000080915002909151020A9784F56FED70E044
:100F100082EE94E00E94E4134AE050E0BE0182EECB
:100F200094E00E94DB146CEB70E082EE94E00E948F
:100F3000E41360915002709151026F5F7F4F4AE05D
:100F400050E082EE94E00E94E3141092530210925B
:100F50005202809150029091510201969093510259
:100F60008093500281E08093280225C06FE970E0F1
:100F700082EE94E00E94E4130E94C20681110E9456
:100F8000C504109251021092500215C010925102E5
:100F9000109250021092280268E970E082EE94E00C
:100FA0000E94E4134AE050E0BE0182EE94E0DF913B
:100FB000CF910C94E314DF91CF9108950F931F9379
:100FC00080914602882371F080914A0290914B02F1
:100FD0000E9478078FEF90E090935502809354021F
:100FE000109246020E94311000914C0210914D0265
:100FF00020914E0230914F02601B710B820B930BBC
:1010000061327E448105910568F060E080911101B4
:101010000E944D1110924C0210924D0210924E02FD
:1010200010924F02809152029091530218161906A5
:10103000C4F46FED72E082EE94E00E94E41310922B
:101040005302109252020E94C206882331F00E947D
:10105000C504109251021092500210925302109245
:1010600052028091520290915302039754F065EC22
:1010700072E082EE94E00E941414109253021092D7
:1010800052021F910F910895885E9E4FDC018D9151
:101090009C91DC01ED91FC910480F581E02D099497
:1010A000885E9E4FDC018D919C91DC01ED91FC915D
:1010B0000190F081E02D0994885E9E4FDC018D91B6
:1010C0009C91DC01ED91FC910680F781E02D099463
:1010D000885E9E4FDC018D919C91DC01ED91FC912D
:1010E0000084F185E02D0994885E9E4FDC018D918E
:1010F0009C91DC01ED91FC910284F385E02D099433
:10110000FC01262F1382128248EE53E060E070E06B
:10111000448355836683778387EE91E09183808350
:101120002487DF01A35FBE4F83E494E011969C9374
:101130008E93129611961C921E92129611961C92E4
:101140001E92179611961C921E9215971C9211963C
:101150008EE394E08D939C93EA5EFE4F8BE394E0E4
:10116000918380830895FC0185850895FC01E35FE8
:10117000FE4F718360833296518340833296318370
:10118000208308950F931F93CF93DF93EC0100E02A
:1011900010E0C801019608321105D8F48C01E881ED
:1011A000F9810480F581E02DCE010995892B51F05C
:1011B000E881F9810680F781E02DCE01099500E0F4
:1011C00010E0EDCF61E070E080E090E00E94601000
:1011D000E0CFDF91CF911F910F910895BF92CF92F1
:1011E000DF92EF92FF920F931F93CF93DF937C01D7
:1011F000B42EC0E0D0E061157105B9F18B016C012E
:1012000088EEC81A8EEFD80ACE3FD10570F5F601E8
:1012100080819181DC01ED91FC910480F581E02DCC
:101220000995892BC1F0D6018D919C91DC01ED913E
:10123000FC910680F781E02D09958D3041F38A30CD
:1012400021F4209721F3BB2081F0F701EC0FFD1F63
:1012500086872196DCCF0150110939F061E070E0FA
:1012600080E090E00E946010CFCFF701EC0FFD1FEF
:1012700016868C2FDF91CF911F910F91FF90EF90E9
:10128000DF90CF90BF900895EF92FF920F931F933E
:10129000CF93DF93EC018B017A010E94C20868E1D1
:1012A00073E082EE94E00E94E413B80182EE94E0D1
:1012B0000E941414FE01E85EFE4FB8018081918106
:1012C0000E94141440E0B701CE010E94EE08182FCE
:1012D00061E173E082EE94E00E94E413BE01625F7C
:1012E0007F4F82EE94E00E942614812FDF91CF91F0
:1012F0001F910F91FF90EF9008950F931F93CF933D
:10130000DF938C01EB0144EF51E065E573E00E944F
:101310004409F801868544E150E0B8018B3219F4A4
:101320006A5E7F4F02C0625F7F4FCE010E94ED1563
:101330001C8A40E064EF71E0C8010E94EE08FE01E3
:1013400001900020E9F7CF0101978C1BDF91CF912D
:101350001F910F9108950F931F93CF93DF938C01EB
:10136000EB0144EF51E06EE473E00E944409B801E0
:10137000625F7F4F4FE050E0CE010E94ED151F8667
:1013800040E064EF71E0C8010E94EE08FE010190A8
:101390000020E9F7CF0101978C1BDF91CF911F91BE
:1013A0000F9108952F923F924F925F926F927F928A
:1013B0008F929F92AF92BF92CF92DF92EF92FF9265
:1013C0000F931F93CF93DF93EC011B0149015A0147
:1013D000270138010E94C2086AE073E082EE94E0BF
:1013E0000E94E413B10182EE94E00E94E4132AE02B
:1013F00030E0B501A40182EE94E00E9491146CE209
:1014000082EE94E00E9409142AE030E0B801A701BE
:1014100082EE94E00E94FB148E01085E1E4FB10123
:10142000F801808191810E94E4132AE030E0B50147
:10143000A401F801808191810E9491146CE2F8016D
:10144000808191810E9409142AE030E0B301A20159
:10145000F801808191810E94FB1440E0B601CE0129
:101460000E94EE08182F63E073E082EE94E00E9481
:10147000E413BE01625F7F4F82EE94E00E94261467
:10148000812FDF91CF911F910F91FF90EF90DF900F
:10149000CF90BF90AF909F908F907F906F905F9014
:1014A0004F903F902F9008950F931F93CF93DF930A
:1014B000EC018A01A9010E944409882341F0B80186
:1014C000CE010E960E94AF1521E0892B09F020E095
:1014D000822FDF91CF911F910F910895CF92DF92CC
:1014E000EF92FF920F931F93CF93DF93EC017C0158
:1014F00088EEE81A8EEFF80AD7016D937C9361E0CD
:101500008C850E94141161E08C850E944D116AE067
:1015100070E080E090E00E94601060E08C850E94A6
:101520004D1164E670E080E090E00E94601061E0A0
:101530008C850E944D116AE174E082EE94E00E9475
:1015400014148EE0C82ED12C8E010A5E1E4FF701B6
:1015500080819181DC01ED91FC910480F581E02D89
:101560000995892B59F0F70180819181DC01ED917A
:10157000FC910680F781E02D0995E9CFF8014081C3
:10158000518124EF31E067E174E0CE010E94540AFA
:10159000811163C0F70180819181DC01ED91FC91A3
:1015A0000480F581E02D0995892B59F0D7018D91A3
:1015B0009C91DC01ED91FC910680F781E02D09956D
:1015C000E9CF24EF31E044E154E061E174E0CE0181
:1015D0000E94540A811141C064EF71E080E090E004
:1015E0000E946010B1E0CB1AD10809F0B0CF6FEDC6
:1015F00073E082EE94E00E941414D8014D915C9146
:1016000024EF31E06CED73E0CE010E94540A64E6F1
:1016100070E080E090E00E946010F801408151810C
:1016200024EF31E069ED73E0CE010E94540A64E6D4
:1016300070E080E090E00E946010D8014D915C91D4
:1016400024EF31E066ED73E0CE010E94540A64E6B7
:1016500070E080E090E00E946010F80140815181CC
:1016600024EF31E061ED73E0CE010E94540A64E69C
:1016700070E080E090E00E946010D8014D915C9194
:1016800024EF31E06CEC73E0CE010E94540A882311
:1016900009F499C0F8014081518124EF31E062ECF6
:1016A00073E0CE010E94540A64E670E080E090E0AE
:1016B0000E946010CE010E94C2086BEB73E082EEC4
:1016C00094E00E94E4136EE971E082EE94E00E94DF
:1016D00026146EE971E0D7018D919C910E94261429
:1016E00041E064EF71E0CE010E94EE0864EB73E02C
:1016F00082EE94E00E94E4138E01025F1F4FB80156
:1017000082EE94E00E94261469EA73E0C8010E9408
:10171000C115892B11F083E023C06EE973E0C80185
:101720000E94C115892B11F082E01AC063E973E0B1
:10173000C8010E94C115892B11F081E011C063E836
:1017400073E0C8010E94C115892B11F084E008C024
:1017500063E773E0C8010E94C115892B11F085E091
:101760008D878D85813069F56CE673E082EE94E0BB
:101770000E94E41362EA71E082EE94E00E94261473
:1017800062EA71E0F701808191810E94261441E0B4
:1017900064EF71E0CE010E94EE0865E673E082EE30
:1017A00094E00E94E413B80182EE94E00E942614B3
:1017B0006DE573E0C8010E94C115892B11F086E028
:1017C0008D8781E001C080E0DF91CF911F910F9163
:1017D000FF90EF90DF90CF9008958F929F92AF92FD
:1017E000BF92CF92DF92EF92FF920F931F93CF930E
:1017F000DF93EC01460165010E94D209B401CE01DC
:101800000E960E94AF1521E0892B09F020E0822F6F
:10181000DF91CF911F910F91FF90EF90DF90CF90CC
:10182000BF90AF909F908F900895AF92BF92CF924C
:10183000DF92EF92FF920F931F93613D27E07207B3
:10184000B8F44536A8F4FC01EA5EFE4FC080D180B2
:10185000E42EF12C00E010E09B0140E050E064EF4A
:10186000A62EBB24B39462E373E00E94ED0B01C08B
:1018700080E01F910F91FF90EF90DF90CF90BF908D
:10188000AF900895CF92DF92EF92FF920F931F9344
:10189000CF93DF93EB016A01122F0E960E94C115C0
:1018A0007C010097D9F0CE010E94B8158E0D9F1DC6
:1018B000F12CC12FDD27C7FDD095F01641F0BE01F8
:1018C0000E94DB15009751F00196F394F6CF0E9429
:1018D0009115F6019183808381E001C080E0DF9162
:1018E000CF911F910F91FF90EF90DF90CF900895CF
:1018F0008F929F92AF92BF92CF92DF92EF920F930F
:10190000CF93DF931F92CDB7DEB74C016A01590127
:10191000202F0E2D44EF51E029830E944409298194
:10192000A501B601C4010E94420C882341F040E0A9
:1019300064EF71E0C4010E94EE0881E001C080E024
:101940000F90DF91CF910F91EF90DF90CF90BF90EC
:10195000AF909F908F900895EF920F93CF93DF9366
:1019600000D0CDB7DEB7EE24E3940CE29E012F5FEA
:101970003F4F46E453E06DE373E00E94780C882308
:1019800011F0898101C080E00F900F90DF91CF911D
:101990000F91EF900895EF920F93CF93DF9300D0C4
:1019A000CDB7DEB7E12C0CE29E012F5F3F4F49E23D
:1019B00053E06FE173E00E94780C882311F0898175
:1019C00001C08FEF0F900F90DF91CF910F91EF90AB
:1019D00008952091D3043091D40428173907B9F41D
:1019E0009091910480919204981789F0E09191046C
:1019F000F0E0ED56FB4F80812091910430E02F5FA5
:101A00003F4F2F7333272093910490E008958FEF79
:101A10009FEF08951F93CF93DF93DC015C968D9128
:101A20009C915D97009749F481E090E013969C9318
:101A30008E93129780E090E03BC05196ED91FC911F
:101A4000529750962C915097322F30951FB75E9633
:101A50004C915E9741FB772770F941FD6095F894B2
:101A60004081772311F0422B01C043234083EC01D6
:101A70002197F1F748E0508160FF02C0522B01C06E
:101A800053235083EC012197F1F76695415099F764
:101A90008081772311F0832301C0822B80831FBFB5
:101AA0005C968D919C915D970197F1F781E090E0B4
:101AB000DF91CF911F9108952091D3043091D404E8
:101AC0002817390781F49091910480919204981716
:101AD00051F0E0919104F0E0ED56FB4F80819927A1
:101AE00087FD909508958FEF9FEF08952091D3047F
:101AF0003091D4042817390771F480919204209111
:101B0000910490E0805C9F4F821B910960E470E03B
:101B10000E943615089580E090E008952091D30446
:101B20003091D4042817390739F48FB7F8941092FC
:101B30009204109291048FBF0895E091D304F09124
:101B4000D404E817F90769F4A389B4899C918589BD
:101B5000809589238C931092D4041092D30481E051
:101B6000089580E00895CF93DF93EC018A8D9B8DDB
:101B7000892BF1F08091D3049091D4048C179D07A8
:101B8000B9F0009711F00E949D0D8E8D8E7F8E8F83
:101B90001092920410929104D093D404C093D30471
:101BA000EB89FC8980819D89892B808381E001C03C
:101BB00080E0DF91CF9108951F920F920FB60F92A0
:101BC00011242F933F934F935F936F937F938F9342
:101BD0009F93AF93BF93EF93FF93E091D304F09162
:101BE000D404309709F451C0868DA685B7859585B4
:101BF00081FF04C08C91892329F447C08C918923EB
:101C000009F043C0A389B4899C9185898095892373
:101C10008C93868997890197F1F7208D318DA68560
:101C2000B785758558E040E0C9010197F1F7842F29
:101C300090E095958795482F6C91672309F040684F
:101C4000515091F7868D81FD40958091920490E0EE
:101C500001968F73992720919104281749F0A0913C
:101C60009204B0E0AD56BB4F4C938093920403C0F6
:101C7000868D8160868F828D938D0197F1F7A38980
:101C8000B4898C919589892B8C93FF91EF91BF91A9
:101C9000AF919F918F917F916F915F914F913F9104
:101CA0002F910F900FBE0F901F90189527EF31E0E6
:101CB000FC01318320830C949D0D1F93CF93DF9300
:101CC000EC01162F6E8D6695617081E06827812F7B
:101CD0000E944D1161E0812F0E941411812F90E02C
:101CE000FC01E15AFB4FE491E88BFC01ED58FB4FFE
:101CF000E491F0E0EE0FFF1FEF56FB4F85919491BA
:101D00009A8B898BDF91CF911F9108951F93CF9369
:101D1000DF93EC01162F60E0812F0E9414118E8D4D
:101D200081FD04C061E0812F0E944D111C87812F2D
:101D300090E0FC01E15AFB4FE491ED87FC01ED5886
:101D4000FB4FE491F0E0EE0FFF1FE957FB4F859149
:101D500094919F878E87DF91CF911F910895FF9275
:101D60000F931F93CF93DF93EC01F62E522F1B821C
:101D70001A8208EE13E020E030E00C831D832E83EE
:101D80003F8387EF91E0998388831F8A1E8A198E8B
:101D9000188E1B8E1A8E1D8E1C8E8E8D8E7F50FB84
:101DA00081F98E8F642FCE010E945D0E6F2DCE01C2
:101DB000DF91CF911F910F91FF900C94860ECF93DE
:101DC000DF93EC019A01AB011B8E1A8E198E188ECF
:101DD0001F8A1E8A60E079E08DE390E00E946C1516
:101DE000C9012430310520F0B9016350710902C0E6
:101DF00061E070E07D8F6C8FEC85E63108F068C0A3
:101E0000B901769567956431710518F063517109D0
:101E100002C061E070E07F8B6E8B069718F0C901FD
:101E2000059702C081E090E0998F888FC901880FE3
:101E3000991F820F931F96958795969587958D305C
:101E4000910510F00C9702C081E090E09B8F8A8F83
:101E500020916800E83050F091E0EE3008F490E016
:101E600081E001C0880F9A95EAF701C084E0822BD7
:101E7000809368002C85283038F02E3040F02631D1
:101E800048F48CE690E008C08DE690E005C08BE653
:101E900090E002C080E090E09C8B8B8B283030F487
:101EA00081E001C0880F2A95EAF70DC0822F90E0EB
:101EB0002E3010F4089701C00E9791E001C0990FE1
:101EC0008A95EAF7892F8D8B8C8D9D8D0197F1F77F
:101ED000CE01DF91CF910C94B30D8230E8F4E82F5E
:101EE000F0E0EE0FFF1FEB52FB4F718360838130F8
:101EF00041F0809169008C7F842B80936900E89A7F
:101F0000089580916900440F551F440F551F837F2A
:101F1000842B80936900E99A08951F920F920FB65F
:101F20000F9211242F933F934F935F936F937F935F
:101F30008F939F93AF93BF93EF93FF938091D504BB
:101F40009091D604892B29F0E091D504F091D60424
:101F50000995FF91EF91BF91AF919F918F917F91E3
:101F60006F915F914F913F912F910F900FBE0F9006
:101F70001F9018951F920F920FB60F9211242F9356
:101F80003F934F935F936F937F938F939F93AF9301
:101F9000BF93EF93FF938091D7049091D804892B3E
:101FA00029F0E091D704F091D8040995FF91EF91C1
:101FB000BF91AF919F918F917F916F915F914F9161
:101FC0003F912F910F900FBE0F901F9018951F9269
:101FD0000F920FB60F9211242F933F938F939F93DD
:101FE000AF93BF938091DA049091DB04A091DC045D
:101FF000B091DD043091D90423E0230F2D3720F474
:102000000196A11DB11D05C026E8230F0296A11D52
:10201000B11D2093D9048093DA049093DB04A0933C
:10202000DC04B093DD048091DE049091DF04A09184
:10203000E004B091E1040196A11DB11D8093DE047E
:102040009093DF04A093E004B093E104BF91AF91BB
:102050009F918F913F912F910F900FBE0F901F90E6
:1020600018952FB7F8946091DA047091DB04809191
:10207000DC049091DD042FBF08953FB7F894809160
:10208000DE049091DF04A091E004B091E10426B554
:10209000A89B05C02F3F19F00196A11DB11D3FBFA0
:1020A0006627782F892F9A2F620F711D811D911D30
:1020B00042E0660F771F881F991F4A95D1F7089550
:1020C000CF92DF92EF92FF92CF93DF936B017C016F
:1020D0000E943D10EB01C114D104E104F10489F028
:1020E0000E9421150E943D106C1B7D0B683E7340C1
:1020F00090F381E0C81AD108E108F108C851DC4F1B
:10210000EACFDF91CF91FF90EF90DF90CF900895CD
:102110008230910538F0880F991F880F991F059715
:102120000197F1F70895789484B5826084BD84B5F1
:10213000816084BD85B5826085BD85B5816085BDC2
:10214000EEE6F0E0808181608083E1E8F0E01082DB
:10215000808182608083808181608083E0E8F0E01C
:10216000808181608083E1EBF0E080818460808306
:10217000E0EBF0E0808181608083EAE7F0E080813D
:10218000846080838081826080838081816080839D
:102190008081806880831092C10008958E3008F09D
:1021A0008E5087702091190190E4299F900111248D
:1021B000822B80937C0080917A00806480937A00E7
:1021C00080917A0086FDFCCF809178002091790083
:1021D00090E0922B0895833081F028F4813099F0BB
:1021E0008230A1F008958730A9F08830B9F08430AA
:1021F000D1F4809180008F7D03C0809180008F7723
:1022000080938000089584B58F7702C084B58F7D58
:1022100084BD08958091B0008F7703C08091B00095
:102220008F7D8093B0000895CF93DF9390E0FC0101
:10223000E15AFB4F2491FC01ED58FB4F8491882318
:1022400049F190E0880F991FFC01E556FB4FA591DD
:10225000B4918F569B4FFC01C591D4919FB76111EA
:1022600008C0F8948C91209582238C9388818223D6
:102270000AC0623051F4F8948C91322F3095832348
:102280008C938881822B888304C0F8948C91822B54
:102290008C939FBFDF91CF9108950F931F93CF939E
:1022A000DF931F92CDB7DEB7282F30E0F901E55B51
:1022B000FB4F8491F901E15AFB4F1491F901ED585C
:1022C000FB4F04910023C9F0882321F069830E9409
:1022D000EB106981E02FF0E0EE0FFF1FEF56FB4F90
:1022E000A591B4919FB7F8948C91611103C010959A
:1022F000812301C0812B8C939FBF0F90DF91CF91E1
:102300001F910F910895CF93DF93282F30E0F901AB
:10231000E55BFB4F8491F901E15AFB4FD491F90140
:10232000ED58FB4FC491CC2391F081110E94EB102A
:10233000EC2FF0E0EE0FFF1FE957FB4FA591B49192
:102340002C912D2381E090E021F480E002C080E018
:1023500090E0DF91CF910895FC01818D228D90E076
:10236000805C9F4F821B91098F7399270895FC0110
:10237000918D828D981731F0828DE80FF11D858D3A
:1023800090E008958FEF9FEF0895FC01918D828D6D
:10239000981761F0828DDF01A80FB11D5D968C91B9
:1023A000928D9F5F9F73928F90E008958FEF9FEFC4
:1023B000089589E493E1892B49F080E090E0892B2E
:1023C00029F00E94491381110C9400000895FC012A
:1023D000848DDF01A80FB11DA35ABF4F2C91848DAE
:1023E00090E001968F739927848FA689B7892C93E3
:1023F000A089B1898C9180648C93938D848D98137E
:1024000006C00288F389E02D80818F7D8083089546
:10241000CF93DF93EC01888D8823C9F0EA89FB898B
:10242000808185FD05C0A889B9898C9186FD0FC082
:102430000FB607FCF5CF808185FFF2CFA889B98957
:102440008C9185FFEDCFCE010E94E711E7CFDF91A0
:10245000CF910895CF92DF92FF920F931F93CF9366
:10246000DF931F92CDB7DEB76C0181E0D60158969D
:102470008C9358975B969C915B975C968C915C973C
:10248000981307C05096ED91FC915197808185FD7E
:102490002EC0F601038D10E00F5F1F4F0F73112741
:1024A000F02EF601848DF81211C00FB607FCF9CF9B
:1024B000D6015096ED91FC915197808185FFF1CF27
:1024C000C60169830E94E7116981EBCF838DE80F14
:1024D000F11DE35AFF4F6083D6015B960C935B9727
:1024E0005296ED91FC915397808180620CC0D60189
:1024F0005696ED91FC91579760835096ED91FC9123
:10250000519780818064808381E090E00F90DF911B
:10251000CF911F910F91FF90DF90CF900895BF92C0
:10252000CF92DF92EF92FF92CF93DF93EC016A019B
:102530007B01B22EE889F98982E08083411581EE22
:10254000580761057105A1F060E079E08DE390E046
:10255000A70196010E944A152150310941095109EC
:102560005695479537952795211580E1380798F0BE
:10257000E889F989108260E874E88EE190E0A701AB
:1025800096010E944A152150310941095109569579
:10259000479537952795EC85FD853083EE85FF853A
:1025A0002083188EEC89FD89B082EA89FB898081BD
:1025B00080618083EA89FB89808188608083EA89E1
:1025C000FB89808180688083EA89FB8980818F7D97
:1025D0008083DF91CF91FF90EF90DF90CF90BF90FD
:1025E00008951F920F920FB60F9211242F938F937D
:1025F0009F93EF93FF93E091F204F091F3048081B5
:10260000E091F804F091F90482FD12C0908180916C
:10261000FB048F5F8F732091FC04821751F0E091CF
:10262000FB04F0E0EE51FB4F958F8093FB0401C05B
:102630008081FF91EF919F918F912F910F900FBE0D
:102640000F901F9018951F920F920FB60F921124A2
:102650002F933F934F935F936F937F938F939F93AA
:10266000AF93BF93EF93FF9382EE94E00E94E71144
:10267000FF91EF91BF91AF919F918F917F916F915A
:102680005F914F913F912F910F900FBE0F901F9030
:10269000189582EE94E00E94AC1121E0892B09F498
:1026A00020E0822F08951092E5041092E40488EE51
:1026B00093E0A0E0B0E08093E6049093E704A09359
:1026C000E804B093E90487E092E09093E3048093F8
:1026D000E20485EC90E09093EF048093EE0484ECA8
:1026E00090E09093F1048093F00480EC90E090935C
:1026F000F3048093F20481EC90E09093F5048093CE
:10270000F40482EC90E09093F7048093F60486EC56
:1027100090E09093F9048093F8041092FB041092D7
:10272000FC041092FD041092FE04089508950E9486
:1027300093100E9496130E949906C9EDD1E10E9460
:10274000DE072097E1F30E94D911F9CFCF92DF92F3
:10275000EF92FF920F931F93CF93DF936C017A0157
:10276000EB01E60EF71E00E010E0CE15DF0561F08C
:102770006991D601ED91FC910190F081E02DC601A7
:102780000995080F191FF1CFC801DF91CF911F9153
:102790000F91FF90EF90DF90CF9008956115710534
:1027A00081F0DB010D900020E9F7AD0141505109A6
:1027B000461B570BDC01ED91FC910280F381E02D6B
:1027C000099480E090E00895EF92FF920F931F9399
:1027D000CF93DF938C01FB01C0E0D0E064917F01D7
:1027E0008FEFE81AF80A662361F0D801ED91FC91A9
:1027F0000190F081E02DC8010995C80FD91FF7019C
:10280000EDCFCE01DF91CF911F910F91FF90EF900F
:102810000895DC01ED91FC910190F081E02D099487
:1028200063E172E00C94CE130F931F93CF93DF9369
:10283000EC010E94E4138C01CE010E941014800F61
:10284000911FDF91CF911F910F9108950F931F93C7
:10285000CF93DF93EC010E94CE138C01CE010E9436
:102860001014800F911FDF91CF911F910F91089548
:102870008F929F92AF92BF92CF92DF92EF92FF9290
:102880000F931F93CF93DF93CDB7DEB7A1970FB60A
:10289000F894DEBF0FBECDBF7C01C42EE52FCB0167
:1028A000D22E19A221E02D1510F02AE0D22E8E0191
:1028B0000F5D1F4F8D2C912CA12CB12C6C2D7E2FD8
:1028C000A50194010E944A158C2DD29E80191124D5
:1028D000015011098A3014F4805D01C0895CF8014F
:1028E0008083211531054105510521F0C22EE32FCA
:1028F000CA01E4CFB801C7010E94CE13A1960FB65A
:10290000F894DEBF0FBECDBFDF91CF911F910F9125
:10291000FF90EF90DF90CF90BF90AF909F908F90FF
:102920000895CF92DF92EF92FF920F931F93CF9370
:10293000DF93EC016A017B012115310579F4E8810F
:10294000F9810190F081E02D642FDF91CF911F91EB
:102950000F91FF90EF90DF90CF9009942A303105CE
:10296000E9F477FF1AC06DE20E9409148C01442734
:102970005527BA014C195D096E097F092AE0CE017D
:102980000E943814800F911FDF91CF911F910F91FA
:10299000FF90EF90DF90CF9008952AE0B701A60155
:1029A000CE01DF91CF911F910F91FF90EF90DF90BB
:1029B000CF900C9438149A01AB01662757FD6095AF
:1029C000762F0C9491140F931F93CF93DF93EC0108
:1029D0009A01AB01662757FD6095762F0E949114EE
:1029E0008C01CE010E941014800F911FDF91CF91B6
:1029F0001F910F9108950F931F93CF93DF93EC01D5
:102A00000E9491148C01CE010E941014800F911F1E
:102A1000DF91CF911F910F9108952115310541F458
:102A2000DC01ED91FC910190F081E02D642F09947F
:102A30000C9438149A01462F50E060E070E00C943A
:102A40000D150895AA1BBB1B51E107C0AA1FBB1F90
:102A5000A617B70710F0A61BB70B881F991F5A952A
:102A6000A9F780959095BC01CD01089597FB072E9D
:102A700016F4009407D077FD09D00E94221507FCB8
:102A800005D03EF4909581959F4F0895709561957E
:102A90007F4F0895A1E21A2EAA1BBB1BFD010DC09A
:102AA000AA1FBB1FEE1FFF1FA217B307E407F507FE
:102AB00020F0A21BB30BE40BF50B661F771F881FDA
:102AC000991F1A9469F760957095809590959B0170
:102AD000AC01BD01CF010895052E97FB1EF40094B3
:102AE0000E94831557FD07D00E944A1507FC03D0AA
:102AF0004EF40C94831550954095309521953F4F99
:102B00004F4F5F4F089590958095709561957F4FD9
:102B10008F4F9F4F0895EE0FFF1F0590F491E02D0A
:102B20000994FC0188279927E89421912032E9F340
:102B3000293010F02E30C8F32B3241F02D3239F409
:102B4000689404C00E94FC15820F911D21912053AE
:102B50002A30C0F31EF4909581959F4F0895FB0194
:102B6000DC018D91059080190110D9F3990B08951E
:102B7000FC0105900020E9F7809590958E0F9F1F2E
:102B80000895FB0155915523A9F0BF01DC014D913A
:102B900045174111E1F759F4CD010590002049F0A6
:102BA0004D9140154111C9F3FB014111EFCF81E077
:102BB00090E001970895FC018191861721F0882308
:102BC000D9F7992708953197CF010895FB01DC01CA
:102BD00001900D920020E1F70895FB01DC014150C6
:102BE000504048F001900D920020C9F701C01D929D
:102BF00041505040E0F708957AE0979F902D879FCD
:102C0000802D910D1124089514E0CAEAD4E004C087
:102C1000FE010E948D152296CC3AD107C9F7F8948F
:022C2000FFCFE4
:102C220000007F0580000164000D020002000258CE
:102C3200020D000C000800730301363038363230C2
:102C420034303435000A456D657267656E637920EC
:102C52006578697374732061743A0A4750533A2055
:102C62004C617469747564653A2034332E3037319F
:102C7200373635207C204C6F6E6769747564653A0F
:102C8200202D38392E3430383133340A0053656EF2
:102C920064696E673A200052656365697665643AD5
:102CA200200077686F6C6573616C650053454E4414
:102CB200204F4B002C002B43434C4B3A20004154F5
:102CC200490041542B474D4D0053544154453A203D
:102CD200434F4E4E454354204F4B005E5A002B4308
:102CE2004D47530041542B434D47443D3030300053
:102CF20041542B434750534F55543D3030300022FE
:102D02002C2200000000005008A61344085C08684A
:102D1200087408000000000A0DA613760DE90C5C89
:102D22000D8E0D000000002A12A613AC11C511B7BA
:102D32001108120D0A006E616E00696E66006F76F0
:042D420066002E00F9
:00000001FF
