:100000000C944F030C9475150C94A2150C94C41306
:100010000C94C4130C94C4130C9477030C947703BE
:100020000C9477030C9477030C9477030C94770368
:100030000C9477030C94E1030C9477030C947703EE
:100040000C94CF150C9477030C94D9180C940B19BD
:100050000C9477030C9477030C9477030C94770338
:100060000C9477030C9477030A456D657267656E8F
:1000700063792043616E63656C65640A00456D6554
:100080007267656E637920536974756174696F6E08
:10009000204578697374730A000942504D3A200074
:1000A0000A4175746F6D6174696320456D6572678F
:1000B000656E63792043616C6C202D2000202D201B
:1000C000436F6E73656375746976652044616E670E
:1000D00065726F75732052656164696E673A2000BE
:1000E0000942504D3A20000A090944617461206CAC
:1000F0006F616465642E2E2E0A000A53656E6420BB
:10010000746F3A20477561726469616E2056697434
:10011000616C204465746563746F722061742000A3
:100120004661696C20636F64652023004661696CD9
:10013000656420746F20676574206C6F63617469F7
:100140006F6E004C6F636174696F6E2066657463D7
:10015000682074696D6564206F75740053656E74F2
:1001600020746F3A20477561726469616E20566928
:1001700074616C204465746563746F7220617420CF
:10018000004661696C656420746F2073656E64203D
:100190006D657373616765007C2D2D2D2D2D2D2DC3
:1001A0002D2D2D2D2D2D2D2D2D2D2D2D2D2D2D2D7F
:1001B0002D2D2D2D2D2D2D2D2D2D2D2D2D2D7C0A43
:1001C0007C202020454D455247454E435920434110
:1001D0004C4C204953204245494E4720504C414306
:1001E0004544202020207C0A7C2D2D2D2D2D2D2DC9
:1001F0002D2D2D2D2D2D2D2D2D2D2D2D2D2D2D2D2F
:100200002D2D2D2D2D2D2D2D2D2D2D2D2D2D7C0AF2
:1002100000464F4E4120697320696E697469616CB4
:10022000697A65640A004661696C656420746F20B0
:10023000656E61626C65206E6574776F726B207499
:10024000696D65005265676973746572696E6720D0
:1002500041504E0A00456E61626C65204750525312
:100260000A0044697361626C6520475052530A006A
:100270006E3A200052656769737465726564207216
:100280006F616D696E6700556E6B6E6F776E0044BF
:10029000656E696564004E6F74207265676973747A
:1002A000657265642028736561726368696E672989
:1002B00000526567697374657265642028686F6DA4
:1002C0006529004E6F742072656769737465726585
:1002D00064003A20004E6574776F726B207374610E
:1002E000747573200053494D2043434944203D20F9
:1002F000004D6F64756C6520494D45493A20003FBB
:100300003F3F00464F4E4120334720284575726FCE
:100310007065616E2900464F4E41203347202841C9
:100320006D65726963616E2900464F4E4120383019
:1003300038202876322900464F4E41203830382068
:100340002876312900464F4E41203830304800464B
:100350004F4E41203830304C00466F756E6420009F
:10036000464F4E41206973204F4B00436F756C64BC
:100370006E27742066696E6420464F4E41000A4223
:100380007574746F6E204572726F722E2052657391
:10039000657474696E672E000A456D657267656ED7
:1003A000637920427574746F6E2043616C6C2052C7
:1003B0006571756573746564202D2000093C2D2DD1
:1003C0002D2000092D2D2D3E2000093C2D2D2D2006
:1003D00000092D2D2D3E2000093C2D2D2D2000093A
:1003E0002D2D2D3E2000093C2D2D2D2000092D2DD9
:1003F0002D3E2000093C2D2D2D20002B4349504738
:10040000534D4C4F433A200041542B4349504753DE
:100410004D4C4F433D312C310041542B4347415407
:10042000543F002B43474154543A200041542B433E
:10043000474154543D300041542B53415042523DAA
:10044000302C310041542B434950534855540053EC
:10045000485554204F4B0041542B434949435200C7
:1004600041542B53415042523D312C310041542BC9
:1004700053415042523D332C312C22505744222CB0
:100480000041542B53415042523D332C312C2255C4
:10049000534552222C0041542B435354543D2200C7
:1004A000092D2D2D3E200041542B435354543D2201
:1004B0000041542B53415042523D332C312C2241A8
:1004C000504E222C0041542B53415042523D332C6C
:1004D000312C22434F4E54595045222C2247505222
:1004E00053220041542B43474154543D3100415461
:1004F0002B434950534855540053485554204F4BB3
:100500000041542B434C54533D300041542B434C39
:1005100054533D31003E20003E200041542B434DBA
:1005200047463D310041542B5350574D3D302C0030
:1005300041542B435245473F002B435245473A20F5
:100540000041542B47534E0041542B434349440030
:1005500053494D3830304800093C2D2D2D200009DD
:100560002D2D2D3E200053494D434F4D5F53494D96
:1005700035333230450053494D434F4D5F53494D5C
:1005800035333230410053494D3830302052313309
:100590000053494D383038205231330053494D38DB
:1005A00030382052313400093C2D2D2D2000092DEA
:1005B0002D2D3E200041542B435648553D300041DF
:1005C00054453000415445300041540041540041ED
:1005D000540054696D656F75743A204E6F207265D2
:1005E00073706F6E736520746F2041542E2E2E2011
:1005F0006C61737420646974636820617474656DE0
:1006000070742E00415400415400415400417474F0
:10061000656D7074696E6720746F206F70656E20F1
:10062000636F6D6D207769746820415473004F4B80
:1006300000464F4E4100464F4E416E65740000002B
:100640000008000201000003040700000000000091
:10065000000001020408102040800102040810205C
:100660000102040810200404040404040404020227
:10067000020202020303030303030000000023003D
:100680002600290000000000250028002B000000A3
:100690000000240027002A005E073B19730711247D
:1006A0001FBECFEFD8E0DEBFCDBF12E0A0E0B1E0CB
:1006B000E8E4FBE302C005900D92AE3CB107D9F728
:1006C00026E0AEECB2E001C01D92A233B207E1F722
:1006D00016E0CCE9D6E004C02297FE010E949F1BE1
:1006E000C839D107C9F70E947F190C94971D0C9443
:1006F0000000CF92DF92EF92FF920F931F938091B1
:10070000FA029091FB02A091FC02B091FD02892BAC
:100710008A2B8B2B69F060E0809128010E943517AD
:100720001092FA021092FB021092FC021092FD024B
:100730000E9419160091F6021091F7022091F8021A
:100740003091F9026B017C01C01AD10AE20AF30A66
:1007500097018601073911052105310590F0209197
:100760000103309102032F5F3F4F30930203209328
:1007700001036093F6027093F7028093F80290935E
:10078000F9021F910F91FF90EF90DF90CF900895A5
:100790001092800081E1809381001092820081E0BC
:1007A00080936F0080E89EE390938700809386009B
:1007B00043E050E069E773E081E00E9455157894CA
:1007C00008951F920F920FB60F9211242F933F930B
:1007D0004F935F936F937F938F939F93AF93BF9349
:1007E000CF93DF93EF93FF93F894809100038111EF
:1007F000EFC0809105030E94B6169093F10280939A
:10080000F0028091D6029091D702A091D802B091C7
:10081000D9020296A11DB11D8093D6029093D702F2
:10082000A093D802B093D9024091D6025091D7023A
:100830006091D8027091D9028091D2029091D30236
:10084000A091D402B091D502EA01C81BD90B209126
:10085000F0023091F1028091090190910A0128176C
:1008600039071CF580910F019091100165E070E04F
:100870000E94481BCB01880F991F860F971F8C176A
:100880009D079CF42091F0023091F10280910B01C0
:1008900090910C012817390744F48091F00290914F
:1008A000F10290930C0180930B012091F0023091A2
:1008B000F1028091090190910A018217930764F473
:1008C0002091F0023091F10280910D0190910E0182
:1008D000821793070CF490C0CB3FD1050CF443C0B2
:1008E0002091F0023091F1028091090190910A016A
:1008F00082179307C4F58091EF02811134C0809173
:100900000F019091100165E070E00E94481BCB013F
:10091000880F991F860F971F8C179D070CF475C0C1
:1009200022C080910F01909110019093ED0280936D
:10093000EC028091EC029091ED02820F931F6AE02D
:1009400070E00E94341B9B0140E050E060E67AEECC
:1009500080E090E00E947E1B3093F3022093F2022D
:1009600081E08093EE022091F0023091F1028091BB
:10097000090190910A012817390724F48091EF02A8
:100980008111AFC0C53CD9401CF180E092E090934A
:100990000A018093090190930E0180930D019093B9
:1009A0000C0180930B018091D6029091D702A09107
:1009B000D802B091D9028093D2029093D302A0932F
:1009C000D402B093D50281E0809306011092D10247
:1009D0007894FF91EF91DF91CF91BF91AF919F916B
:1009E0008F917F916F915F914F913F912F910F90D8
:1009F0000FBE0F901F9018958091F0029091F10218
:100A000090930E0180930D0167CF81E08093EF02F8
:100A100061E080912C010E9435174091D6025091DF
:100A2000D7026091D8027091D9028091D202909140
:100A3000D302A091D402B091D502481B590B509318
:100A4000100140930F018091D6029091D702A0919E
:100A5000D802B091D9028093D2029093D302A0938E
:100A6000D402B093D5028091D102882399F01092DC
:100A7000D10280E090E020910F0130911001FC0143
:100A8000EE0FFF1FE652FD4F3183208301968A301F
:100A9000910589F780910601882331F010920601B3
:100AA00081E08093D10294CFE0E0F0E020E030E0FC
:100AB000CF010196DC01AA0FBB1FA652BD4F4D917D
:100AC0005C91EE0FFF1FE652FD4F51834083408142
:100AD0005181240F351F8930910509F422CFFC0183
:100AE000E7CF60E080912C010E9435171092EF0251
:100AF00080910D0190910E0120910B0130910C011C
:100B0000821B930B9093080180930701809107014A
:100B10009091080120910B0130910C0197FD0196F5
:100B200095958795820F931F90930A0180930901F1
:100B30008091090190910A0190930E0180930D011B
:100B40008091090190910A0190930C0180930B010F
:100B500019CFCF92DF92EF92FF920F931F93CF9313
:100B6000DF93CDB7DEB72C970FB6F894DEBF0FBE7C
:100B7000CDBF8C01789481E0809300030E94191608
:100B80006B017C0188E093E00E94B312811112C0D6
:100B90000E9419166C197D098E099F0960317742F0
:100BA0008105910578F363E471E081E995E00E94A5
:100BB000FE1935C02AEF30E041E454E0BE01655F24
:100BC0007F4F88E093E00E941912811106C06CE209
:100BD00071E081E995E00E94FE198B859C85892B47
:100BE00081F461E474E081E995E00E94101A6FEDF0
:100BF00071E081E494E00E94141DFE0131967F01B2
:100C000012C060E271E081E995E00E94CC196B8529
:100C10007C854AE050E081E995E00E941D1B10921E
:100C2000000380E080C0009759F0F7018193919311
:100C30007F016FED71E080E090E00E94141DF3CF22
:100C4000EF80F884F7018081898781818A87CE01CE
:100C500009960E94CA1C9C01853091052CF488E1FC
:100C600090E0821B930B01C005976AE070E00E9440
:100C7000481B605DF7016083805D818364E170E003
:100C800080E090E00E9448166AEF70E081E995E00C
:100C90000E94CC1963E171E081E995E00E94101A8D
:100CA0008FEFF80111928A95E9F761EE71E0C801C2
:100CB0000E94381D65E072E0C8010E94191D69811B
:100CC0007A81C8010E94191D61E172E0C8010E9489
:100CD000191D6B817C81C8010E94191D6DE172E0B4
:100CE000C8010E94191D6D817E81C8010E94191DD5
:100CF00065E272E0C8010E94191DB701C8010E9497
:100D0000191D67EE70E081E995E00E94FE19B801B7
:100D100081E995E00E94101A81E995E00E94FA1994
:100D20001092000381E02C960FB6F894DEBF0FBE40
:100D3000CDBFDF91CF911F910F91FF90EF90DF908A
:100D4000CF9008950F931F93CF93DF9368E971E0DD
:100D500081E995E00E94FE196AE070E080E090E091
:100D60000E944816F894CAE0D0E061E080912A0120
:100D70000E9435170AE010E080E197E20E947016A9
:100D800001501109C9F760E080912A010E943517CE
:100D90000AE010E080E197E20E947016015011090C
:100DA000C9F7219711F78091F4029091F5020E9402
:100DB000A9058823B1F07894C1E0C0930003409165
:100DC000F4025091F50263E171E088E093E00E9443
:100DD000540F81110EC061E871E081E995E00E9435
:100DE000FE191092020310920103109200037894EE
:100DF00060C06CE571E081E995E00E94CC1963E187
:100E000071E081E995E00E94101A10920003C093EE
:100E1000000342E36CED75E088E093E00E943E1031
:100E200069E170E080E090E00E94481642E368EEDD
:100E300073E088E093E00E943E1069E170E080E09A
:100E400090E00E94481642E36CED75E088E093E084
:100E50000E943E1069E170E080E090E00E94481638
:100E600042E368EE73E088E093E00E943E1069E19F
:100E700070E080E090E00E94481642E360E070E09D
:100E800088E093E00E943E101092000361E08091A0
:100E900028010E9435170E9419166093FA02709378
:100EA000FB028093FC029093FD02109202031092C9
:100EB0000103DF91CF911F910F91089520E045E04C
:100EC00066E082E294E00E94971464E088E093E098
:100ED0000E94EC0A8CE890E00E94A31B9093F5021C
:100EE0008093F402089582E294E00C943E1481E928
:100EF00095E00E949417892B29F081E995E00E94E2
:100F0000AD17F5CF08950F931F93CF93DF93CDB710
:100F1000DEB72F970FB6F894DEBF0FBECDBF81E0CE
:100F20008093000340EC52E160E070E080912E017C
:100F300090912F010E94C71460912E0170912F0192
:100F400088E093E00E949B0D811107C06BE673E07F
:100F500081E995E00E94FE19FFCF88E093E00E94AE
:100F60001F0B8093070360E673E081E995E00E9420
:100F7000FE1969E573E081E995E00E94CC19809142
:100F80000703833099F038F4813069F08230A9F595
:100F900067E373E013C0853079F058F0863069F567
:100FA00065E473E00BC06FE473E008C069E273E0CE
:100FB00005C066E173E002C063E073E081E995E09B
:100FC0000E94FE198E010F5F1F4F8FE0F8011192F2
:100FD0008A95E9F7B80188E093E00E94740C8823B1
:100FE000A1F061EF72E081E995E00E94CC19B801AF
:100FF00081E995E00E94101A08C06FEF72E081E964
:1010000095E00E94FE1980E0CDC061E474E088E0C4
:1010100093E00E94460C65EE72E081E995E00E9443
:10102000CC1961E474E081E995E00E94101A88E02F
:1010300093E00E949412182F65ED72E081E995E02B
:101040000E94CC194AE050E0612F81E995E00E94AE
:10105000161B62ED72E081E995E00E94CC19111136
:1010600003C063EC72E018C0113019F461EB72E058
:1010700013C0123019F466E972E00EC0133019F48F
:101080006FE872E009C0143019F467E872E004C038
:10109000153031F464E772E081E995E00E94FE19B1
:1010A00061E080912C010E943517113099F088E0A1
:1010B00093E00E949412182F60E772E081E995E0B6
:1010C0000E94CC194AE050E0612F81E995E00E942E
:1010D000161BEBCF60E080912C010E94351762E671
:1010E00072E081E995E00E94CC1960E088E093E02D
:1010F0000E94871065E572E081E995E00E94CC19B5
:1011000061E088E093E00E94871000911101109146
:10111000120164E472E081E995E00E94CC1920E0BC
:1011200030E040E050E0B80188E093E00E94220BFC
:1011300088E093E00E94B3128823D1F361E088E055
:1011400093E00E941A0F811106C066E272E081E905
:1011500095E00E94FE1961E172E081E995E00E944C
:10116000CC196AE070E080E090E00E9448160E948E
:10117000770788E093E00E94B00A892B81F088E02D
:1011800093E00E94C80AE0919105F09192050190C8
:10119000F081E02D682F81E995E00995EACF109262
:1011A000000381E02F960FB6F894DEBF0FBECDBFCF
:1011B000DF91CF911F910F91089561E080912C01F3
:1011C0000E94FC1626E040E052EC61E070E081E90C
:1011D00095E00E9477180E9483070E94C80360E090
:1011E00083E00E94FC1661E083E00E94351761E015
:1011F000809128010E94FC1661E080912A010E94E2
:10120000FC1681E08093000342E364EF71E088E024
:1012100093E00E943E1069E170E080E090E00E945F
:10122000481642E368EE73E088E093E00E943E10C7
:1012300069E170E080E090E00E94481642E36CEDC6
:1012400075E088E093E00E943E1069E170E080E084
:1012500090E00E94481642E360ED77E088E093E07A
:101260000E943E1069E170E080E090E00E94481624
:1012700042E360E070E088E093E00E943E1010924C
:101280000003109202031092010308958F929F921F
:10129000AF92BF92CF92DF92EF92FF926DE770E034
:1012A00081E995E00E94FE1981E08093000342E30A
:1012B00064EF71E088E093E00E943E10109200031A
:1012C00061E0809128010E9435170E9419164B0198
:1012D0005C010E9419166B017C0188E8C80E83E14D
:1012E000D81EE11CF11C10920203109201030E940F
:1012F00019166C157D058E059F0508F03FC060E04E
:1013000080912C010E943517809101039091020376
:101310000297C4F068E670E081E995E00E94FE194A
:1013200081E08093000342E360E070E088E093E0B6
:101330000E943E10109200031092020310920103CB
:1013400080E039C00E941916681979098A099B0939
:101350006A3F71058105910550F2809128010E9434
:101360006B1761E0892B09F060E0809128010E94F1
:1013700035170E9419164B015C01B9CF60E08091CE
:101380002A010E94351760E0809128010E943517DC
:1013900010920203109201030E94770781E080936C
:1013A000000342E360E070E088E093E00E943E10BA
:1013B0001092000381E0FF90EF90DF90CF90BF90FC
:1013C000AF909F908F900895CF93DF93EC014E974D
:1013D0008B3A910508F446C08091FE029091FF027D
:1013E0000A9784F560EE70E081E995E00E94CC19DF
:1013F0004AE050E0BE0181E995E00E94D71A6DEB0A
:1014000070E081E995E00E94CC196091FE02709134
:10141000FF026F5F7F4F4AE050E081E995E00E9454
:10142000DF1A10920203109201038091FE02909144
:10143000FF0201969093FF028093FE0281E0809369
:10144000D00225C060EA70E081E995E00E94CC19E5
:101450000E94460981110E94A2061092FF0210927A
:10146000FE0215C01092FF021092FE021092D002EE
:1014700069E970E081E995E00E94CC194AE050E00A
:10148000BE0181E995E0DF91CF910C94DF1ADF91E5
:10149000CF9108950F931F938091EE02882371F0EE
:1014A0008091F2029091F3020E94E4098FEF90E0A4
:1014B00090930403809303031092EE020E94191686
:1014C0000091FA021091FB022091FC023091FD0282
:1014D000601B710B820B930B61327E448105910579
:1014E00068F060E0809128010E9435171092FA029E
:1014F0001092FB021092FC021092FD0280910103F7
:101500009091020318161906C4F468E973E081E9A2
:1015100095E00E94CC1910920203109201030E94E0
:101520004609882331F00E94A2061092FF02109211
:10153000FE02109202031092010380910103909128
:101540000203039754F06EE773E081E995E00E948F
:10155000FE1910920203109201031F910F9108953A
:10156000885E9E4FDC018D919C91DC01ED91FC9198
:101570000480F581E02D0994885E9E4FDC018D91F9
:101580009C91DC01ED91FC910190F081E02D09949A
:10159000885E9E4FDC018D919C91DC01ED91FC9168
:1015A0000680F781E02D0994885E9E4FDC018D91C5
:1015B0009C91DC01ED91FC910084F185E02D099472
:1015C000885E9E4FDC018D919C91DC01ED91FC9138
:1015D0000284F385E02D0994FC01262F13821282E8
:1015E00048EE53E060E070E0448355836683778380
:1015F00080E992E0918380832487DF01A35FBE4F5F
:1016000086E396E011969C938E93129611961C9207
:101610001E92129611961C921E92179611961C926B
:101620001E9215971C92119681E396E08D939C93E0
:10163000EA5EFE4F8EE296E0918380830895FC017E
:1016400085850895FC01E35FFE4F718360833296C8
:101650005183408332963183208308950F931F93E3
:10166000CF93DF93EC0100E010E0C801019608324F
:101670001105D8F48C01E881F9810480F581E02D11
:10168000CE010995892B51F0E881F9810680F78117
:10169000E02DCE01099500E010E0EDCF61E070E0B3
:1016A00080E090E00E944816E0CFDF91CF911F913B
:1016B0000F910895BF92CF92DF92EF92FF920F9316
:1016C0001F93CF93DF937C01B42EC0E0D0E061156F
:1016D0007105B9F18B016C0188EEC81A8EEFD80A3A
:1016E000CE3FD10570F5F60180819181DC01ED914D
:1016F000FC910480F581E02D0995892BC1F0D6017C
:101700008D919C91DC01ED91FC910680F781E02D9B
:1017100009958D3041F38A3021F4209721F3BB20C5
:1017200081F0F701EC0FFD1F86872196DCCF015079
:10173000110939F061E070E080E090E00E94481605
:10174000CFCFF701EC0FFD1F16868C2FDF91CF91C5
:101750001F910F91FF90EF90DF90CF90BF90089571
:101760000F931F93CF93DF93EC018B01BA0140E0FD
:101770000E945A0B64EF73E081E995E00E94CC1956
:101780002E96BE0181E995E00E94101AB801CE01A3
:101790000E94E81C21E0892B09F020E0822FDF91D4
:1017A000CF911F910F910895EF92FF920F931F9386
:1017B000CF93DF93EC018B017A010E942E0B6DEE2B
:1017C00073E081E995E00E94CC19B80181E995E0C8
:1017D0000E94101AFE01E85EFE4FB80180819181DF
:1017E0000E94101A40E0B701CE010E945A0B182F38
:1017F00066EE73E081E995E00E94CC19BE01625F5C
:101800007F4F81E995E00E94101A812FDF91CF91DF
:101810001F910F91FF90EF900895EF92FF920F9319
:101820001F93CF93DF93EC018B017A010E942E0B63
:101830006FED73E081E995E00E94CC19B80181E970
:1018400095E00E94FE19FE01E85EFE4FB80180811E
:1018500091810E94FE1940E0B701CE010E945A0B0F
:10186000182F68ED73E081E995E00E94CC19BE0164
:10187000625F7F4F81E995E00E94101A812FDF910E
:10188000CF911F910F91FF90EF9008950F931F93A9
:10189000CF93DF938C01EB0144EF51E068E475E0F6
:1018A0000E940D0CF801868544E150E0B8018B32AE
:1018B00019F46A5E7F4F02C0625F7F4FCE010E94C3
:1018C0003F1D1C8A40E064EF71E0C8010E945A0B82
:1018D000FE0101900020E9F7CF0101978C1BDF91F9
:1018E000CF911F910F9108950F931F93CF93DF9383
:1018F0008C01EB0144EF51E061E475E00E940D0CB6
:10190000B801625F7F4F4FE050E0CE010E943F1D63
:101910001F8640E064EF71E0C8010E945A0BFE018F
:1019200001900020E9F7CF0101978C1BDF91CF9147
:101930001F910F9108952F923F924F925F926F9255
:101940007F928F929F92AF92BF92CF92DF92EF924F
:10195000FF920F931F93CF93DF93EC011B0149017B
:101960005A01270138010E942E0B61ED73E081E9D5
:1019700095E00E94CC19B10181E995E00E94CC1953
:101980002AE030E0B501A40181E995E00E948D1ABA
:101990006CE281E995E00E94F3192AE030E0B80199
:1019A000A70181E995E00E94F71A8E01085E1E4F9B
:1019B000B101F801808191810E94CC192AE030E0C8
:1019C000B501A401F801808191810E948D1A6CE219
:1019D000F801808191810E94F3192AE030E0B3017F
:1019E000A201F801808191810E94F71A40E0B601BE
:1019F000CE010E945A0B182F6AEC73E081E995E042
:101A00000E94CC19BE01625F7F4F81E995E00E9480
:101A1000101A812FDF91CF911F910F91FF90EF90BE
:101A2000DF90CF90BF90AF909F908F907F906F90FE
:101A30005F904F903F902F900895AF92BF92CF92BA
:101A4000DF92EF92FF920F931F93CF93DF93EC01FE
:101A50007B016A0159010E942E0B63EC73E081E95E
:101A600095E00E94CC19B70181E995E00E94CC195C
:101A700062E281E995E00E94F319B60181E995E0FF
:101A80000E94CC1962E281E995E00E94221A8E013F
:101A9000085E1E4FB701F801808191810E94CC1928
:101AA00062E2F801808191810E94F319B601F80188
:101AB000808191810E94CC1962E2F801808191813C
:101AC0000E94221A40E0B501CE010E945A0B182F45
:101AD0006CEB73E081E995E00E94CC19BE01625F76
:101AE0007F4F81E995E00E94101A812FDF91CF91FD
:101AF0001F910F91FF90EF90DF90CF90BF90AF902C
:101B000008950F931F93CF93DF93EC018A01A901EE
:101B10000E940D0C882341F0B801CE010E960E9460
:101B2000E81C21E0892B09F020E0822FDF91CF9182
:101B30001F910F910895CF92DF92EF92FF920F9332
:101B40001F93CF93DF93EC017C0188EEE81A8EEFB0
:101B5000F80AD7016D937C9361E08C850E94FC1696
:101B600061E08C850E9435176AE070E080E090E0CB
:101B70000E94481660E08C850E94351764E670E08C
:101B800080E090E00E94481661E08C850E94351745
:101B90006DE076E081E995E00E94FE198EE0C82EA6
:101BA000D12C8E010A5E1E4FF70180819181DC01EC
:101BB000ED91FC910480F581E02D0995892B59F078
:101BC000F70180819181DC01ED91FC910680F78124
:101BD000E02D0995E9CFF8014081518124EF31E0F2
:101BE0006AE076E0CE010E94810D811163C0F701A9
:101BF00080819181DC01ED91FC910480F581E02DE3
:101C00000995892B59F0D7018D919C91DC01ED91BB
:101C1000FC910680F781E02D0995E9CF24EF31E0B2
:101C200047E056E064E076E0CE010E94810D81112C
:101C300041C064EF71E080E090E00E944816B1E09E
:101C4000CB1AD10809F0B0CF62ED75E081E995E0DB
:101C50000E94FE19D8014D915C9124EF31E06FECA8
:101C600075E0CE010E94810D64E670E080E090E0B6
:101C70000E944816F8014081518124EF31E06CEC5C
:101C800075E0CE010E94810D64E670E080E090E096
:101C90000E944816D8014D915C9124EF31E069EC27
:101CA00075E0CE010E94810D64E670E080E090E076
:101CB0000E944816F8014081518124EF31E064EC24
:101CC00075E0CE010E94810D64E670E080E090E056
:101CD0000E944816D8014D915C9124EF31E06FEBE2
:101CE00075E0CE010E94810D882309F499C0F801A6
:101CF0004081518124EF31E065EB75E0CE010E9417
:101D0000810D64E670E080E090E00E944816CE010C
:101D10000E942E0B6EEA75E081E995E00E94CC19D5
:101D200067E472E081E995E00E94101A67E472E0CE
:101D3000D7018D919C910E94101A41E064EF71E0EF
:101D4000CE010E945A0B67EA75E081E995E00E9496
:101D5000CC198E01025F1F4FB80181E995E00E9406
:101D6000101A6CE975E0C8010E94FA1C892B11F069
:101D700083E023C061E975E0C8010E94FA1C892B49
:101D800011F082E01AC066E875E0C8010E94FA1CF2
:101D9000892B11F081E011C066E775E0C8010E944F
:101DA000FA1C892B11F084E008C066E675E0C801D2
:101DB0000E94FA1C892B11F085E08D878D8581307A
:101DC00069F56FE575E081E995E00E94CC196BE457
:101DD00072E081E995E00E94101A6BE472E0F7016D
:101DE000808191810E94101A41E064EF71E0CE0180
:101DF0000E945A0B68E575E081E995E00E94CC19D4
:101E0000B80181E995E00E94101A60E575E0C8010B
:101E10000E94FA1C892B11F086E08D8781E001C0B9
:101E200080E0DF91CF911F910F91FF90EF90DF90B5
:101E3000CF900895CF93DF93EC01FC01EA5EFE4F53
:101E40004081518124EF31E0662371F06BE075E051
:101E5000CE010E94810D882329F0CE010E942E0B15
:101E600081E005C080E003C061E075E0F1CFDF9163
:101E7000CF9108950F931F93CF93DF93EC018A01C5
:101E8000A9010E94D40B882341F0B801CE010E961F
:101E90000E94E81C21E0892B09F020E0822FDF91CD
:101EA000CF911F910F910895AF92BF92CF92DF9281
:101EB000EF92FF920F931F93CF93DF93CDB7DEB7CF
:101EC0006E970FB6F894DEBF0FBECDBF8C015B01DD
:101ED0006A01FC01EA5EFE4F4081518124EF31E04E
:101EE0006BE175E00E94810D882309F48DC08AE0C2
:101EF000EFE3F1E09E012F5F3F4F7901D90101909F
:101F00000D928A95E1F7FE013B9684E1DF011D9277
:101F10008A95E9F743E150E0B501CE010A960E94A7
:101F20003F1DF70101900020E9F7319782E280839D
:101F300024EF31E048E155E0B701C8010E943A0FB3
:101F4000811102C080E061C065E175E081E995E042
:101F50000E94CC19B60181E995E00E94101AB601E1
:101F60007801B8EEEB1ABEEFFB0AF7018081918190
:101F70000E94101AD7018D919C910E94FA19F701C5
:101F800080819181DC01ED91FC910190F081E02D47
:101F90006AE1099564E672E081E995E00E94101A11
:101FA000F80185858450823060F440E068EC70E090
:101FB000C8010E945A0B40E068EC70E0C8010E9422
:101FC0005A0B40E060E177E2C8010E945A0B7801A9
:101FD000FEE0EF0EF11C67E672E0C7010E944E1DA5
:101FE000892B09F4AFCF40E068EE73E0C8010E948E
:101FF0005A0B6CE372E0C7010E942F1D21E0892B70
:1020000009F020E0822F01C081E06E960FB6F894AF
:10201000DEBF0FBECDBFDF91CF911F910F91FF901B
:10202000EF90DF90CF90BF90AF9008958F929F92E6
:10203000AF92BF92CF92DF92EF92FF920F931F93D6
:10204000CF93DF93EC01460165010E949B0CB40124
:10205000CE010E960E94E81C21E0892B09F020E0B9
:10206000822FDF91CF911F910F91FF90EF90DF9022
:10207000CF90BF90AF909F908F900895AF92BF92F6
:10208000CF92DF92EF92FF920F931F93613D27E073
:102090007207B8F44536A8F4FC01EA5EFE4FC08032
:1020A000D180E42EF12C00E010E09B0140E050E0F4
:1020B00064EFA62EBB24B39465E275E00E9416106F
:1020C00001C080E01F910F91FF90EF90DF90CF90C3
:1020D000BF90AF900895EF92FF920F931F93CF930D
:1020E000DF93EC01790198010E941D0DB701CE012B
:1020F0000E960E94E81C21E0892B09F020E0822F37
:10210000DF91CF911F910F91FF90EF9008958F92E3
:102110009F92AF92BF92CF92DF92EF92FF920F9376
:102120001F93CF93DF93EC0120E23EE4662309F492
:102130000FC149EF54E06EEE74E00E94810D7E0104
:102140008AEEE81A8EEFF80AF7014081518120E10A
:1021500037E263EE74E0CE010E94810D882309F41A
:1021600024C1F7014081518120E137E265EC74E040
:10217000CE010E94810D882309F417C15E01F3EF9F
:10218000AF1AFEEFBF0AF50140815181411551059B
:10219000A9F4F7014081518120E335E760E674E05E
:1021A000CE010E94810D882309F4FFC0F701408110
:1021B000518120E137E267E574E0E8C0F701208152
:1021C000318100E117E261EB74E0CE010E946B10F7
:1021D000882309F4EAC0CE010E942E0B8E01085E0E
:1021E0001E4F67EA74E0F801808191810E94CC194A
:1021F000F50160817181F801808191810E94CC1983
:102200004E01F1EF8F1AFEEF9F0AF4018081918158
:10221000892B79F068E872E0F801808191810E9451
:10222000F119F40160817181F801808191810E942E
:10223000CC196E01FFEECF1AFEEFDF0AF6018081A6
:102240009181892B79F068E872E0F80180819181B1
:102250000E94F119F60160817181F80180819181FC
:102260000E94CC196AE872E0F801808191810E9495
:10227000101A60EA74E081E995E00E94CC1966E9E1
:1022800074E081E995E00E94CC19F50160817181CB
:1022900081E995E00E94CC19F40180819181892B1C
:1022A00069F068E872E081E995E00E94F119F401B3
:1022B0006081718181E995E00E94CC19F6018081ED
:1022C0009181892B69F068E872E081E995E00E94CC
:1022D000F119F6016081718181E995E00E94CC19C4
:1022E0006AE872E081E995E00E94101AF7016081C6
:1022F000718140E157E2CE010E94B00B882309F4BE
:1023000054C0F401408151814115510539F4F60161
:10231000408151814115510571F43BCFF701208176
:10232000318100E117E261E874E0CE010E946B1098
:102330008111EDCF3AC0F7012081318100E117E230
:102340006DE674E0CE010E946B10811122CF2DC08A
:102350004FE454E064E474E00E94810D882329F185
:102360008E010A5E1E4FF8014081518120E137E263
:1023700067E374E0CE010E94810D8823B1F0F8017B
:102380004081518120E137E26CE274E0CE01DF91BF
:10239000CF911F910F91FF90EF90DF90CF90BF9062
:1023A000AF909F908F900C94810D80E0DF91CF9142
:1023B0001F910F91FF90EF90DF90CF90BF90AF9063
:1023C0009F908F900895CF92DF92EF92FF920F939C
:1023D0001F93CF93DF93EB016A01122F0E960E9499
:1023E000FA1C7C010097D9F0CE010E94F11C8E0DE1
:1023F0009F1DF12CC12FDD27C7FDD095F01641F0B0
:10240000BE010E94241D009751F00196F394F6CF6F
:102410000E94CA1CF6019183808381E001C080E0A4
:10242000DF91CF911F910F91FF90EF90DF90CF90B0
:102430000895AF92BF92CF92DF92EF92FF920F93E7
:10244000CF93DF93EC016B017A01590140E157E230
:1024500068E074E00E940D0C00E02CE2A6016BEF36
:1024600073E0CE010E94E3118823F9F0BE01645E9F
:102470007F4F950121503109FB0101900020E9F7C0
:102480003197E61BF70B2E173F0708F4F901AF0150
:102490004F5F5F4FC7010E943F1D40E064EF71E056
:1024A000CE010E945A0B81E001C080E0DF91CF9104
:1024B0000F91FF90EF90DF90CF90BF90AF90089575
:1024C0008F929F92AF92BF92CF92DF92EF920F9333
:1024D000CF93DF931F92CDB7DEB74C016A0159014C
:1024E000202F0E2D44EF51E029830E940D0C2981ED
:1024F000A501B601C4010E94E311882341F040E028
:1025000064EF71E0C4010E945A0B81E001C080E0D9
:102510000F90DF91CF910F91EF90DF90CF90BF9010
:10252000AF909F908F900895EF920F93CF93DF938A
:1025300000D0CDB7DEB7EE24E3940CE29E012F5F0E
:102540003F4F49E355E060E375E00E946012882345
:1025500011F0898101C080E00F900F90DF91CF9141
:102560000F91EF900895EF920F93CF93DF9300D0E8
:10257000CDB7DEB7E12C0CE29E012F5F3F4F43E267
:1025800054E069E174E00E946012882311F08981AF
:1025900001C08FEF0F900F90DF91CF910F91EF90CF
:1025A0000895209182053091830528173907B9F4E1
:1025B0009091400580914105981789F0E091400580
:1025C000F0E0EE5BFA4F80812091400530E02F5F14
:1025D0003F4F2F7333272093400590E008958FEFEE
:1025E0009FEF08951F93CF93DF93DC015C968D914D
:1025F0009C915D97009749F481E090E013969C933D
:102600008E93129780E090E03BC05196ED91FC9143
:10261000529750962C915097322F30951FB75E9657
:102620004C915E9741FB772770F941FD6095F894D6
:102630004081772311F0422B01C043234083EC01FA
:102640002197F1F748E0508160FF02C0522B01C092
:1026500053235083EC012197F1F76695415099F788
:102660008081772311F0832301C0822B80831FBFD9
:102670005C968D919C915D970197F1F781E090E0D8
:10268000DF91CF911F9108952091820530918305AC
:102690002817390781F490914005809141059817DA
:1026A00051F0E0914005F0E0EE5BFA4F8081992710
:1026B00087FD909508958FEF9FEF089520918205F3
:1026C000309183052817390771F4809141052091D5
:1026D000400590E0805C9F4F821B910960E470E0B0
:1026E0000E94481B089580E090E0089520918205A3
:1026F000309183052817390739F48FB7F894109271
:102700004105109240058FBF0895E0918205F09138
:102710008305E817F90769F4A389B4899C91858931
:10272000809589238C93109283051092820581E015
:10273000089580E00895CF93DF93EC018A8D9B8DFF
:10274000892BF1F080918205909183058C179D076C
:10275000B9F0009711F00E9485138E8D8E7F8E8FB9
:102760001092410510924005D0938305C0938205D5
:10277000EB89FC8980819D89892B808381E001C060
:1027800080E0DF91CF9108951F920F920FB60F92C4
:1027900011242F933F934F935F936F937F938F9366
:1027A0009F93AF93BF93EF93FF93E0918205F091D6
:1027B0008305309709F451C0868DA685B785958528
:1027C00081FF04C08C91892329F447C08C9189230F
:1027D00009F043C0A389B4899C9185898095892398
:1027E0008C93868997890197F1F7208D318DA68585
:1027F000B785758558E040E0C9010197F1F7842F4E
:1028000090E095958795482F6C91672309F0406873
:10281000515091F7868D81FD40958091410590E062
:1028200001968F73992720914005281749F0A091B0
:102830004105B0E0AE5BBA4F4C938093410503C0B5
:10284000868D8160868F828D938D0197F1F7A389A4
:10285000B4898C919589892B8C93FF91EF91BF91CD
:10286000AF919F918F917F916F915F914F913F9128
:102870002F910F900FBE0F901F90189520EA32E015
:10288000FC01318320830C9485131F93CF93DF9336
:10289000EC01162F6E8D6695617081E06827812F9F
:1028A0000E94351761E0812F0E94FC16812F90E075
:1028B000FC01EE5AF94FE491E88BFC01EA59F94F1B
:1028C000E491F0E0EE0FFF1FEC57F94F85919491E2
:1028D0009A8B898BDF91CF911F9108951F93CF938E
:1028E000DF93EC01162F60E0812F0E94FC168E8D85
:1028F00081FD04C061E0812F0E9435171C87812F64
:1029000090E0FC01EE5AF94FE491ED87FC01EA59A1
:10291000F94FE491F0E0EE0FFF1FE658F94F859173
:1029200094919F878E87DF91CF911F910895FF9299
:102930000F931F93CF93DF93EC01F62E522F1B8240
:102940001A8208EE13E020E030E00C831D832E8312
:102950003F8380EA92E0998388831F8A1E8A198EBA
:10296000188E1B8E1A8E1D8E1C8E8E8D8E7F50FBA8
:1029700081F98E8F642FCE010E9445146F2DCE01F8
:10298000DF91CF911F910F91FF900C946E14CF9314
:10299000DF93EC019A01AB011B8E1A8E198E188EF3
:1029A0001F8A1E8A60E079E08DE390E00E947E1B22
:1029B000C9012430310520F0B9016350710902C00A
:1029C00061E070E07D8F6C8FEC85E63108F068C0C7
:1029D000B901769567956431710518F063517109F5
:1029E00002C061E070E07F8B6E8B069718F0C90122
:1029F000059702C081E090E0998F888FC901880F08
:102A0000991F820F931F96958795969587958D3080
:102A1000910510F00C9702C081E090E09B8F8A8FA7
:102A200020916800E83050F091E0EE3008F490E03A
:102A300081E001C0880F9A95EAF701C084E0822BFB
:102A4000809368002C85283038F02E3040F02631F5
:102A500048F48CE690E008C08DE690E005C08BE677
:102A600090E002C080E090E09C8B8B8B283030F4AB
:102A700081E001C0880F2A95EAF70DC0822F90E00F
:102A80002E3010F4089701C00E9791E001C0990F05
:102A90008A95EAF7892F8D8B8C8D9D8D0197F1F7A3
:102AA000CE01DF91CF910C949B138230E8F4E82F94
:102AB000F0E0EE0FFF1FEC57FA4F71836083813017
:102AC00041F0809169008C7F842B80936900E89AA3
:102AD000089580916900440F551F440F551F837F4F
:102AE000842B80936900E99A08951F920F920FB684
:102AF0000F9211242F933F934F935F936F937F9384
:102B00008F939F93AF93BF93EF93FF93809184052F
:102B100090918505892B29F0E0918405F091850538
:102B20000995FF91EF91BF91AF919F918F917F9107
:102B30006F915F914F913F912F910F900FBE0F902A
:102B40001F9018951F920F920FB60F9211242F937A
:102B50003F934F935F936F937F938F939F93AF9325
:102B6000BF93EF93FF938091860590918705892B02
:102B700029F0E0918605F09187050995FF91EF9185
:102B8000BF91AF919F918F917F916F915F914F9185
:102B90003F912F910F900FBE0F901F9018951F928D
:102BA0000F920FB60F9211242F933F938F939F9301
:102BB000AF93BF938091890590918A05A0918B0571
:102BC000B0918C053091880523E0230F2D3720F438
:102BD0000196A11DB11D05C026E8230F0296A11D77
:102BE000B11D209388058093890590938A05A09351
:102BF0008B05B0938C0580918D0590918E05A091E9
:102C00008F05B09190050196A11DB11D80938D0592
:102C100090938E05A0938F05B0939005BF91AF91CF
:102C20009F918F913F912F910F900FBE0F901F900A
:102C300018952FB7F8946091890570918A05809155
:102C40008B0590918C052FBF08953FB7F894809124
:102C50008D0590918E05A0918F05B091900526B5B8
:102C6000A89B05C02F3F19F00196A11DB11D3FBFC4
:102C70006627782F892F9A2F620F711D811D911D54
:102C800042E0660F771F881F991F4A95D1F7089574
:102C9000CF92DF92EF92FF92CF93DF936B017C0193
:102CA0000E942516EB01C114D104E104F10489F05E
:102CB0000E94331B0E9425166C1B7D0B683E7340DF
:102CC00090F381E0C81AD108E108F108C851DC4F3F
:102CD000EACFDF91CF91FF90EF90DF90CF900895F2
:102CE0008230910538F0880F991F880F991F05973A
:102CF0000197F1F70895789484B5826084BD84B516
:102D0000816084BD85B5826085BD85B5816085BDE6
:102D1000EEE6F0E0808181608083E1E8F0E01082FF
:102D2000808182608083808181608083E0E8F0E040
:102D3000808181608083E1EBF0E08081846080832A
:102D4000E0EBF0E0808181608083EAE7F0E0808161
:102D500084608083808182608083808181608083C1
:102D60008081806880831092C10008958E3008F0C1
:102D70008E5087702091300190E4299F900111249A
:102D8000822B80937C0080917A00806480937A000B
:102D900080917A0086FDFCCF8091780020917900A7
:102DA00090E0922B0895833081F028F4813099F0DF
:102DB0008230A1F008958730A9F08830B9F08430CE
:102DC000D1F4809180008F7D03C0809180008F7747
:102DD00080938000089584B58F7702C084B58F7D7D
:102DE00084BD08958091B0008F7703C08091B000BA
:102DF0008F7D8093B0000895CF93DF9390E0FC0126
:102E0000EE5AF94F2491FC01EA59F94F8491882335
:102E100049F190E0880F991FFC01E257F94FA59105
:102E2000B4918C57994FFC01C591D4919FB7611112
:102E300008C0F8948C91209582238C9388818223FA
:102E40000AC0623051F4F8948C91322F309583236C
:102E50008C938881822B888304C0F8948C91822B78
:102E60008C939FBFDF91CF9108950F931F93CF93C2
:102E7000DF931F92CDB7DEB7282F30E0F901E25C77
:102E8000F94F8491F901EE5AF94F1491F901EA5979
:102E9000F94F04910023C9F0882321F069830E942F
:102EA000D3166981E02FF0E0EE0FFF1FEC57F94FCA
:102EB000A591B4919FB7F8948C91611103C01095BE
:102EC000812301C0812B8C939FBF0F90DF91CF9105
:102ED0001F910F910895CF93DF93282F30E0F901D0
:102EE000E25CF94F8491F901EE5AF94FD491F9015E
:102EF000EA59F94FC491CC2391F081110E94D31665
:102F0000EC2FF0E0EE0FFF1FE658F94FA591B491BA
:102F10002C912D2381E090E021F480E002C080E03C
:102F200090E0DF91CF910895FC01818D228D90E09A
:102F3000805C9F4F821B91098F7399270895FC0134
:102F4000918D828D981731F0828DE80FF11D858D5E
:102F500090E008958FEF9FEF0895FC01918D828D91
:102F6000981761F0828DDF01A80FB11D5D968C91DD
:102F7000928D9F5F9F73928F90E008958FEF9FEFE8
:102F8000089581E399E1892B49F080E090E0892B55
:102F900029F00E94311981110C9400000895FC0160
:102FA000848DDF01A80FB11DA35ABF4F2C91848DD2
:102FB00090E001968F739927848FA689B7892C9307
:102FC000A089B1898C9180648C93938D848D9813A2
:102FD00006C00288F389E02D80818F7D808308956B
:102FE000CF93DF93EC01888D8823C9F0EA89FB89B0
:102FF000808185FD05C0A889B9898C9186FD0FC0A7
:103000000FB607FCF5CF808185FFF2CFA889B9897B
:103010008C9185FFEDCFCE010E94CF17E7CFDF91D6
:10302000CF910895CF92DF92FF920F931F93CF938A
:10303000DF931F92CDB7DEB76C0181E0D6015896C1
:103040008C9358975B969C915B975C968C915C9760
:10305000981307C05096ED91FC915197808185FDA2
:103060002EC0F601038D10E00F5F1F4F0F73112765
:10307000F02EF601848DF81211C00FB607FCF9CFBF
:10308000D6015096ED91FC915197808185FFF1CF4B
:10309000C60169830E94CF176981EBCF838DE80F4A
:1030A000F11DE35AFF4F6083D6015B960C935B974B
:1030B0005296ED91FC915397808180620CC0D601AD
:1030C0005696ED91FC91579760835096ED91FC9147
:1030D000519780818064808381E090E00F90DF9140
:1030E000CF911F910F91FF90DF90CF900895BF92E5
:1030F000CF92DF92EF92FF92CF93DF93EC016A01C0
:103100007B01B22EE889F98982E08083411581EE46
:10311000580761057105A1F060E079E08DE390E06A
:10312000A70196010E945C1B2150310941095109F8
:103130005695479537952795211580E1380798F0E2
:10314000E889F989108260E874E88EE190E0A701CF
:1031500096010E945C1B2150310941095109569585
:10316000479537952795EC85FD853083EE85FF855E
:103170002083188EEC89FD89B082EA89FB898081E1
:1031800080618083EA89FB89808188608083EA8905
:10319000FB89808180688083EA89FB8980818F7DBB
:1031A0008083DF91CF91FF90EF90DF90CF90BF9021
:1031B00008951F920F920FB60F9211242F938F93A1
:1031C0009F93EF93FF93E091A105F091A205808179
:1031D000E091A705F091A80582FD12C09081809131
:1031E000AA058F5F8F732091AB05821751F0E09194
:1031F000AA05F0E0EF56FA4F958F8093AA0501C01B
:103200008081FF91EF919F918F912F910F900FBE31
:103210000F901F9018951F920F920FB60F921124C6
:103220002F933F934F935F936F937F938F939F93CE
:10323000AF93BF93EF93FF9381E995E00E94CF177F
:10324000FF91EF91BF91AF919F918F917F916F917E
:103250005F914F913F912F910F900FBE0F901F9054
:10326000189581E995E00E94941721E0892B09F4D3
:1032700020E0822F0895109294051092930588EE15
:1032800093E0A0E0B0E08093950590939605A0931D
:103290009705B093980580EB92E090939205809308
:1032A000910585EC90E090939E0580939D0584ECBC
:1032B00090E09093A00580939F0580EC90E0909320
:1032C000A2058093A10581EC90E09093A4058093E2
:1032D000A30582EC90E09093A6058093A50586EC6B
:1032E00090E09093A8058093A7051092AA051092EC
:1032F000AB051092AC051092AD05089508950E949B
:103300007B160E947E190E94DD08C1ECD7E10E9465
:103310004A0A2097E1F30E94C117F9CFCF92DF92BA
:10332000EF92FF920F931F93CF93DF936C017A017B
:10333000EB01E60EF71E00E010E0CE15DF0561F0B0
:103340006991D601ED91FC910190F081E02DC601CB
:103350000995080F191FF1CFC801DF91CF911F9177
:103360000F91FF90EF90DF90CF9008956115710558
:1033700081F0DB010D900020E9F7AD0141505109CA
:10338000461B570BDC01ED91FC910280F381E02D8F
:10339000099480E090E00895EF92FF920F931F93BD
:1033A000CF93DF938C01FB01C0E0D0E064917F01FB
:1033B0008FEFE81AF80A662361F0D801ED91FC91CD
:1033C0000190F081E02DC8010995C80FD91FF701C0
:1033D000EDCFCE01DF91CF911F910F91FF90EF9034
:1033E00008950C94B619DC01ED91FC910190F081E7
:1033F000E02D09946CEB72E00C94B6190F931F93B7
:10340000CF93DF93EC010E94CC198C01CE010E9476
:10341000FA19800F911FDF91CF911F910F9108959D
:103420000F931F93CF93DF93EC010E94B6198C0189
:10343000CE010E94FA19800F911FDF91CF911F9149
:103440000F9108950F931F93CF93DF93EC010E9488
:10345000F3198C01CE010E94FA19800F911FDF91A0
:10346000CF911F910F9108958F929F92AF92BF922B
:10347000CF92DF92EF92FF920F931F93CF93DF9340
:10348000CDB7DEB7A1970FB6F894DEBF0FBECDBFA4
:103490007C01C42EE52FCB01D22E19A221E02D15DF
:1034A00010F02AE0D22E8E010F5D1F4F8D2C912C33
:1034B000A12CB12C6C2D7E2FA50194010E945C1BC8
:1034C0008C2DD29E80191124015011098A3014F4D8
:1034D000805D01C0895CF8018083211531054105BB
:1034E000510521F0C22EE32FCA01E4CFB801C70174
:1034F0000E94B619A1960FB6F894DEBF0FBECDBFDD
:10350000DF91CF911F910F91FF90EF90DF90CF90BF
:10351000BF90AF909F908F900895CF92DF92EF92DF
:10352000FF920F931F93CF93DF93EC016A017B010E
:103530002115310579F4E881F9810190F081E02DC0
:10354000642FDF91CF911F910F91FF90EF90DF904B
:10355000CF9009942A303105E9F477FF1AC06DE263
:103560000E94F3198C0144275527BA014C195D09B3
:103570006E097F092AE0CE010E94341A800F911F44
:10358000DF91CF911F910F91FF90EF90DF90CF903F
:1035900008952AE0B701A601CE01DF91CF911F91D6
:1035A0000F91FF90EF90DF90CF900C94341A9A0116
:1035B000AB01662757FD6095762F0C948D1A0F93FB
:1035C0001F93CF93DF93EC019A01AB01662757FD60
:1035D0006095762F0E948D1A8C01CE010E94FA19F7
:1035E000800F911FDF91CF911F910F9108950F933D
:1035F0001F93CF93DF93EC010E948D1A8C01CE01B3
:103600000E94FA19800F911FDF91CF911F910F91A6
:1036100008952115310541F4DC01ED91FC910190F3
:10362000F081E02D642F09940C94341A9A01462FEE
:1036300050E060E070E00C94091B0F931F93CF9350
:10364000DF93EC019A01AB0160E070E00E94091B7E
:103650008C01CE010E94FA19800F911FDF91CF914A
:103660001F910F9108950895AA1BBB1B51E107C03C
:10367000AA1FBB1FA617B70710F0A61BB70B881F02
:10368000991F5A95A9F780959095BC01CD01089591
:1036900097FB072E16F4009407D077FD09D00E94FF
:1036A000341B07FC05D03EF4909581959F4F0895FB
:1036B000709561957F4F0895A1E21A2EAA1BBB1B3E
:1036C000FD010DC0AA1FBB1FEE1FFF1FA217B307EE
:1036D000E407F50720F0A21BB30BE40BF50B661F04
:1036E000771F881F991F1A9469F7609570958095C8
:1036F00090959B01AC01BD01CF010895052E97FB6C
:103700001EF400940E94951B57FD07D00E945C1B7D
:1037100007FC03D04EF40C94951B509540953095C2
:1037200021953F4F4F4F5F4F08959095809570952D
:1037300061957F4F8F4F9F4F0895EE0FFF1F0590AC
:10374000F491E02D0994CF93DF938230910510F42A
:1037500082E090E0E0913006F091310620E030E028
:10376000A0E0B0E0309739F1408151814817590706
:10377000B8F04817590771F482819381109729F0A6
:1037800013969C938E9312972CC09093310680933E
:10379000300627C02115310531F04217530718F0C4
:1037A000A901DB0101C0EF019A01BD01DF01028027
:1037B000F381E02DD7CF21153105F9F0281B390B06
:1037C0002430310580F48A819B816115710521F0D7
:1037D000FB019383828304C090933106809330066B
:1037E000FE01329644C0FE01E20FF31F81939193D4
:1037F00022503109398328833AC020912E06309116
:103800002F06232B41F420910201309103013093C4
:103810002F0620932E0620910001309101012115E1
:10382000310541F42DB73EB7409104015091050197
:10383000241B350BE0912E06F0912F06E217F307BB
:10384000A0F42E1B3F0B2817390778F0AC014E5F10
:103850005F4F2417350748F04E0F5F1F50932F0618
:1038600040932E068193919302C0E0E0F0E0CF01F7
:10387000DF91CF910895CF93DF93009709F487C02C
:10388000FC01329713821282C0913006D09131062A
:10389000209781F420813181280F391F80912E06D5
:1038A00090912F068217930779F5F0932F06E093F6
:1038B0002E066DC0DE0120E030E0AE17BF0750F4E9
:1038C00012964D915C9113979D014115510509F197
:1038D000DA01F3CFB383A28340815181840F951F16
:1038E0008A179B0771F48D919C911197840F951FF6
:1038F00002969183808312968D919C911397938366
:1039000082832115310529F4F0933106E0933006C6
:103910003EC0D9011396FC93EE9312974D915D91A1
:10392000A40FB51FEA17FB0779F480819181840FFA
:10393000951F0296D90111969C938E938281938153
:1039400013969C938E931297E0E0F0E08A819B811E
:10395000009719F0FE01EC01F9CFCE010296288103
:103960003981820F931F20912E0630912F06281740
:10397000390769F4309729F4109231061092300615
:1039800002C013821282D0932F06C0932E06DF91BD
:10399000CF910895FC0188279927E894219120323E
:1039A000E9F3293010F02E30C8F32B3241F02D32DC
:1039B00039F4689404C00E948F1D820F911D2191DB
:1039C00020532A30C0F31EF4909581959F4F08959F
:1039D000FB01DC018D91059080190110D9F3990B41
:1039E0000895FC0105900020E9F7809590958E0FD1
:1039F0009F1F0895FB0155915523A9F0BF01DC01DC
:103A00004D9145174111E1F759F4CD010590002082
:103A100049F04D9140154111C9F3FB014111EFCF20
:103A200081E090E0019708954EEC52E00E94681DFD
:103A30000895FB01DC010D900020E9F7119701903A
:103A40000D920020E1F70895FC018191861721F085
:103A50008823D9F7992708953197CF010895FB015D
:103A6000DC018D91019080190110D9F3990B089513
:103A7000FB01DC0101900D920020E1F70895FB01AC
:103A8000DC014150504048F001900D920020C9F7F0
:103A900001C01D9241505040E0F70895FB01519143
:103AA0005523A9F0BF01DC014D9145174111E1F704
:103AB00059F4CD010190002049F04D91401541117C
:103AC000C9F3FB014111EFCF81E090E00197089528
:103AD000FA01A191B081009719F41097E1F0CD019E
:103AE000DC01CD010D90002011F4C00113C0FB01D9
:103AF0002191222319F02015D9F7F3CFFB01219151
:103B0000201519F41E92119606C02223C1F70D90BC
:103B10000020A1F7D001FA01A193B08308957AE0C3
:103B2000979F902D879F802D910D1124089516E069
:103B3000CCE9D6E004C0FE010E949F1B2296CE393C
:083B4000D107C9F7F894FFCF8B
:103B48000000320680000164000D020002000258E5
:103B5800022D023630383632303430343500000029
:103B680000000000000000000D000C000800220406
:103B78000141542B4350494E3D00000000000041D4
:103B8800542B434D47533D22000000000000000025
:103B98000000000000000000000000000041542B5D
:103BA800435553443D312C22000000000000000022
:103BB800000000000000000000000041542B4347B3
:103BC800415554483D312C312C22000000000000A2
:103BD80000000000000000000000000000000000DD
:103BE80000000000000000000000000000000000CD
:103BF80000000000000000000000000000000000BD
:103C080000000000000000000000000000000000AC
:103C18000000000000000000000000000000002C70
:103C280000456D657267656E6379206578697374A0
:103C3800732061742047505253206C6F636174691C
:103C48006F6E3A0A004C6F6E6769747564653A2046
:103C5800000A4C617469747564653A20000A44610D
:103C680074653A20000A54696D653A200077686FD8
:103C78006C6573616C650053454E44204F4B002BB7
:103C880043434C4B3A20004154490041542B474D83
:103C98004D0053544154453A20434F4E4E454354EA
:103CA800204F4B005E5A002B434D47530041542B85
:103CB800434D47443D3030300041542B4347505327
:103CC8004F55543D30303000222C220000000000B7
:103CD800BC0A8E19B00AC80AD40AE00A000000001B
:103CE800F2128E195E13D1124413761300000000ED
:103CF80012188E199417AD179F17F0170D0A006E3A
:0E3D0800616E00696E66006F7666002E000028
:00000001FF
